:0E0000000C9434000C9400000C9400000C943E
:10000E0000000C9400000C9400000C9400000C9462
:10001E0000000C9400000C9400000C9400000C9452
:10002E0000000C9400000C9400000C9400000C9442
:10003E0000000C9400000C9400000C9400000C9432
:10004E0000000C9400000C9400000C9400000C9422
:10005E0000000C9400000C940000F894EE27EFBB07
:10006E00F1E0F5BFE5BF8DE0A2E0BB27ED938A95E9
:10007E00E9F780E098E0A0E0B1E0ED930197E9F7B1
:10008E00E0E0EEBBEFEFEDBFE8E0EEBFC0E0D3E0A7
:10009E000C947B00AA935F98A8817CD05F9A81C054
:1000AE00AA93289A5F98A88175D05F9A289879C0EC
:1000BE00AA931A930A935F98ACE26CD0289A00E048
:1000CE0010E00030E0E41E0748F4EC816CD0EB81C8
:1000DE006AD0EA8168D00F5F1F4FF3CF28985F9ADE
:1000EE0019810881259608955F9A299AEFE2E4B95D
:1000FE00E2E0E5B9579AE0E5ECBDE0E0EDBD299808
:10010E00AAE0B0E00E94E500299AAAE0B0E00E94C1
:10011E00E5005F98A9E23ED05F9A5F98A1E13AD0E0
:10012E005F9AA6E3B7DFA8ECBBDFAAE3B3DFA6E5D1
:10013E00B7DF28985F98ACE22DD05F9A289A5F9827
:10014E0033244424E0E0F0E43E164F0658F4A4E0D5
:10015E0021D0A4E01FD0A4E01DD0E1E0F0E03E0EDF
:10016E004F1EF0CF28985F9A85E38A95F1F7E0E06D
:10017E00EA93EFE31CD0E0E0EA93EA93AFE398DF73
:10018E00A4EFB1E00E94E500EFE3EA93E0E00FD0C8
:10019E00EECFFFCFAA93E881EEBDEDB5E7FFFDCF21
:1001AE00EEB521960895EE0FEE0FAE2FF3CFEA9334
:1001BE00A0E07EDFA4EFB1E00C94E500109639F0DC
:1001CE0080EA9FE00197F1F7A8951197C9F7089576
:00000001FF
