:0E0000000C94CE010C9400000C9400000C94A3
:10000E0000000C9400000C9400000C9400000C9462
:10001E0000000C9400000C9400000C9400000C9452
:10002E0000000C9400000C9400000C9400000C9442
:10003E0000000C9400000C9400000C9400000C9432
:10004E0000000C9400000C9400000C9400000C9422
:10005E0000000C9400000C94000000000000000052
:10006E00000004040404000400000A0A0A00000050
:10007E0000000A0A1F0A1F0A0A00040F140E051EAA
:10008E00040018190204081303000C1214081412A9
:10009E000D000C040800000000000204080808040B
:1000AE00020008040202020408000004150E1504E2
:1000BE0000000004041F04040000000000000C04F3
:1000CE0008000000001F0000000000000000000CEF
:1000DE000C0000010204081000000E111315191176
:1000EE000E00040C040404040E000E110102040898
:1000FE001F001F02040201110E0002060A121F0247
:10010E0002001F101E0101110E000608101E111113
:10011E000E001F010204080808000E11110E111125
:10012E000E000E11110F01020C0000010204081046
:10013E000000000C0C000C04080002040810080457
:10014E00020000001F001F0000000804020102044C
:10015E0008000E110102040004000E11010D151508
:10016E000E000E1111111F1111001E11111E111171
:10017E001E000E11101010110E001C121111111272
:10018E001C001F10101E10101F001F10101E10102C
:10019E0010000E11101711110E001111111F111157
:1001AE0011000E04040404040E00070202020212DF
:1001BE000C0011121418141211001010101010103F
:1001CE001F00111B15151111110011111915131105
:1001DE0011000E11111111110E001E11111E101011
:1001EE0010000E11111115120D001E11111E1412F8
:1001FE0011000F10100E01011E001F040404040450
:10020E0004001111111111110E0011111111110A09
:10021E0004001111111115150E0011110A040A1105
:10022E0011001111110A040404001F010204081028
:10023E001F000E08080808080E00110A1F041F04EC
:10024E0004000E02020202020E00040A1100000057
:10025E0000000000000000001F0008040000000065
:10026E00000000000E010F110F0010101E111111D1
:10027E001E0000000E1010110E0001010D131111C1
:10028E000F0000000E111F100E000609081C0808B2
:10029E000800000F11110F010E0010101619111188
:1002AE00110004000C0404040E00020006020212E7
:1002BE000C00101012141814120018080808080860
:1002CE001C0000001A15151111000000161911114D
:1002DE00110000000E1111110E0000001E111E1053
:1002EE00100000000F110F01010000001619101070
:1002FE00100000000E100E011E0008081C08080950
:10030E0006000000111111130D0000001111110A49
:10031E0004000000111111150A000000110A040A50
:10032E001100000011110F010E0000001F02040841
:10033E001F001715151517000000171117141700B9
:10034E00000017141711170000000105091F0804FB
:10035E00000000070E1C111E00001027E8036400A9
:10036E000A0001000010000110000100FF00FF0054
:10037E00000000000000050048656C6C6F212070C5
:10038E00483D256900000C0003007A030000F89434
:10039E00EE27EFBBF1E0F5BFE5BF8DE0A2E0BB2796
:1003AE00ED938A95E9F780E098E0A0E0B1E0ED9357
:1003BE000197E9F7E4E9F3E085919591009761F0F3
:1003CE00A591B59105901590BF01F00105900D9284
:1003DE000197E1F7FB01F0CFE0E0EEBBEFEFEDBFF1
:1003EE00E8E0EEBFC0E0D3E00C94DA02AA935F9887
:1003FE00A88139D15F9A3EC1AA93289A5F98A881A5
:10040E0032D15F9A289836C10E9404053E2E4F2E97
:10041E000E9411055E2E6F2E08C00E9404057E2ECE
:10042E008F2E0E9411059E2EAF2E23960895AA930D
:10043E000E94AB050E941B05AE2FED81E695E69559
:10044E00E695EA0F3E2FED81EF71E295E07FEE0F1C
:10045E00AC81EA0F2E2F5F98ACE205D1289A00E00E
:10046E0010E00030E0E41E0738F4A32FFCD0A22FDA
:10047E00FAD00F5F1F4FF5CF28985F9A0E94B205F2
:10048E0027960895AA93ABE202C0AA93AAE2AEDF22
:10049E00A0E0B2DFA981B0DFA0E0AEDFA881ACDFC3
:1004AE0022960895BA93AA930E94AB050E94200546
:1004BE00EA93E885EE0FEE0FEE0FE95FAE2FE2DF67
:1004CE000E941B05EA930E942005E95FAE2FDDDF37
:1004DE001FE0AC81BD81EE27A10FBE1FEC91E03075
:1004EE0011F41150F6CF00E0E12FF0E03196A02F7D
:1004FE00B0E0AE17BF070CF050C028980E941B0545
:10050E00AE2FE02FEE0FEE0FEE0FEA0FEA930E94E2
:10051E002005E95FAE2FE02FEE0FEE0FEE0FAE0FC0
:10052E00B4DF5F98ACE29FD0289A30E0383098F56F
:10053E0020E0283070F5AC81BD81EE27A00FBE1FE4
:10054E00EC91F0E0B0970E948705E859FF4FDF016C
:10055E00E32FF0E0EA0FFB1F6491E22FF0E0A7E03B
:10056E00B0E00E94A205EA1BFB0BA1E0B0E00E94E6
:10057E007E05A62FB0E0EA23FB23309721F0A32DB2
:10058E0072D0A52D03C0A72D6ED0A92D6CD02F5FD4
:10059E00D0CF3F5FCBCF0F5FA7CF28985F9A0E9437
:1005AE00B205289608955F9A299AEFE2E4B9E2E03F
:1005BE00E5B9579AE8E5ECBDE1E0EDBD2998AAE072
:1005CE00B0E00E946C05299AAAE0B0E00E946C058A
:1005DE005F98A9E248D05F9AA1E108DFA6E306DFA3
:1005EE00A8EC0ADFAAE302DFA5E606DF28985F98EB
:1005FE00ACE239D05F9A289A5F98BB24CC24E0E015
:10060E00F0E6BE16CF0658F4A4E02DD0A4E12BD010
:10061E00A4E429D0E1E0F0E0BE0ECF1EF0CF289882
:10062E005F9AE2E0EA93E0E0EA93A0E000DF0E9446
:10063E002505EFE1EA93EA93A0E0E6DEE0E0EA9337
:10064E00EA93A0E0EADE0E9438050E9425050E948A
:10065E003805E1E0F0E0DE0EEF1EA4E6B0E00E9409
:10066E006C05F3CFFFCFAA93E881EEBDEDB5E7FFA2
:10067E00FDCFEEB521960895BA93AA931A930A93D5
:10068E00AA81BB8112960E949505309759F1AA81D5
:10069E00BB8114960E9495058F01309761F0023050
:1006AE00E0E01E0798F0F80131978F01AA81BB8117
:1006BE001496ED93FC93AA81BB811296ED91FD9158
:1006CE003196FE93EE933197AC81A083AA81BB81C4
:1006DE000E949505FF232AF0ED91FD913196FE9330
:1006EE00EE9306C0AA81BB81EFEFFFEFED93FC9373
:1006FE001981088125960895BA93AA9326970E9488
:10070E00A90510E0AC85BD85E0E0F0E0ED93FC932B
:10071E00EA89FB893196EA8BFB8B3197E4912E2F78
:10072E00E03009F415C1E12FE03039F4253211F42F
:10073E0011E002C00E9440050AC1E130A9F4253241
:10074E0019F40E94400502C112E040E000E02D3293
:10075E0011F401E0FCC02B3211F44BE2F8C0203250
:10076E0011F440E2F4C002C0E23039F450E013E07C
:10077E00203311F40068EBC003C0E33009F0E7C08A
:10078E00203310F02A3308F007C0AAE05A9F502DEC
:10079E00E22FE0535E0FDBC0E22FE33649F40E94F6
:1007AE004705E889F989A481AA930E944D05CEC018
:1007BE00E33741F40E9447050E9453050E94EB0463
:1007CE001E2F0AC0E03761F40E9447050E945305B0
:1007DE000E94F7041E2F086002600F7730E034C0CD
:1007EE00E43611F0E93611F4046002C0E53731F455
:1007FE00E8E6F3E0EE83FF8315E00CC0E83511F474
:10080E00086003C0E83709F0A1C0E2E7F3E0EE8329
:10081E00FF8314E002FF14C00E9447050E945D058D
:10082E00AB85AA233AF4EA85FB850E947A05EA870E
:10083E00FB874DE2403011F01F5F01C00B7F04C0FB
:10084E000E9447050E945D0500FD11C0151778F442
:10085E0007FF08C002FF04C00B7F242F115001C0F8
:10086E0020E301C020E20E9440055150EFCF312F0E
:10087E0001FF17C03030A1F003FF06C0EE81FF81EB
:10088E002591EE83FF8305C0AE81BF812D91AE838E
:10089E00BF830E944005503009F051503150EACFCD
:1008AE004BC020E3EE81FF810E949905E887F9870E
:1008BE00EE81FF813296EE83FF83E885F985AA8566
:1008CE00BB85AE17BF0750F02F5FA885B985EA85A7
:1008DE00FB85EA1BFB0BEA87FB87EFCF2A3328F059
:1008EE0003FF02C0295F01C0295D04FD1AC0213338
:1008FE0020F4A885B985119709F409C0531710F093
:10090E0000FF01C013C020E207FF0BC020E300610F
:10091E0002FF07C00B7F4A930E944D05503009F02D
:10092E0051500E944005503009F051503150A88569
:10093E00B985129708F0B5CF00FF08C0503031F0DE
:10094E005150E0E2EA930E944D05F8CF10E0E0CE60
:10095E00AC85BD850E9495050E94B00564960895EC
:10096E00FF92F82E26970E94AB050E9465053097E0
:10097E0019F4EFEFFFEF23C0DE0116960E94760505
:10098E008D010E946505EE83FF83E0E0E887E9872D
:10099E00DE011A960E9476050E949505FA93EA9357
:1009AE001A930A93E3E4F3E0FA93EA93DE011A96BC
:1009BE00A3DE9F01AE81BF81E0E0EC93F9010E94BE
:1009CE00B2052A96FF900895BA93AA93A991B99168
:1009DE00EE27FF276D91662311F03196FBCF089518
:1009EE00BA93AA93AA27BB27E991F9910590002003
:1009FE0011F01196FBCFFD010895AA93EA81F0E064
:100A0E000E948705DF01E981F0E00E948E05EA0F62
:100A1E00FB1F0895E981F0E0EF71F070DF01E881CE
:100A2E00EB5F0E947E050895EE81EE0FEE0FEE0F46
:100A3E000895EF81EE0FEE0FEE0F0895E0E0F3E074
:100A4E00FA93EA93E6E8F3E0FA93EA93ED2DFE2D9E
:100A5E00662777270E949D0584E00E94B70428969A
:100A6E000895EAE0EA93E1E0EA93A0E0B3E00C94A3
:100A7E0059022A93AD85BE85EF85F88909950895AB
:100A8E00E889F9893497E88BF98B0895AD85BE8591
:100A9E00EF85F88909950895A889B98914960E9459
:100AAE009505EE83FF83AE81BF810895A889B9892C
:100ABE0014960E949505EA87FB870895DE011C9621
:100ACE000E9476050E9495050895109639F080EAE9
:100ADE009FE00197F1F7A8951197C9F708950024A3
:100AEE00AF0DB01D0895F195E195F0400895EE23F8
:100AFE000E2EFD0121F0EE0FFF1F0A94E1F708956F
:100B0E00EE0FFF1FEE0FFF1FEE0FFF1F0895F5955F
:100B1E00E795F595E795F595E7950895ED91FC9197
:100B2E00119708950590F491E02D08957A936A93A4
:100B3E00FA93EA9308951B2EBF2FF12D1A2EAE2F86
:100B4E00E12D08955A934A933A932A931A930A934E
:100B5E0008955D814C813B812A8119810881089518
:00000001FF
