:100000000C94240D0C9400000C9400000C9400003F
:100010000C9400000C9400000C9400000C94000060
:100020000C9400000C9400000C9400000C94000050
:100030000C9400000C9400000C9400000C94000040
:100040000C9400000C9400000C9400000C94000030
:100050000C9400000C9400000C9400000C94000020
:100060000C9400000C940000080000000000000048
:100070000000000000000000000000000000000080
:1000800000000000000300000000FE0D0000000062
:100090000000000000000000000000000000000060
:1000A00000000500000F00000000000F000000002D
:1000B0000000000000000000000000000000000A36
:1000C00000000001100DD0033801160D90037801D7
:1000D00016011000000000000000000008000038B9
:1000E0000444084408FF3F8408840808070000000F
:1000F0000000000000000000000E000000003C00B6
:10010000421042183C080006800170000C00820773
:100110004208400880070B000080035C042208228C
:10012000086208A2081C050002E0050008000000A3
:100130000000000200000F000000000000000000AE
:1001400000000000000000000000000000000000AF
:10015000050000F0070C180220010000000000005C
:100160000000000000000000000000000006000089
:100170000000010002200C18F00700000000000041
:100180000000000000000000000008000022001431
:100190000008007F0008001400220000000000009A
:1001A000000000000000000B000000008000800044
:1001B00080008000F80F8000800080008000000038
:1001C000000000000300000020001C0000000000F0
:1001D000000000000000000000000000000000001F
:1001E0000006000080008000800080008000000089
:1001F00000000000000000000000000000000600F9
:10020000000000000C0000000000000000000000E2
:100210000000000000000000000000070020001C9B
:100220000003C00030000E000100000000000000CC
:100230000000000000000000090000F803040402B0
:10024000080208020802080404F803000000000085
:100250000000000000080000000000000808080876
:10026000FE0F000800080000000000000000000071
:100270000000090000040C020A020A0209020982B5
:1002800008440838080000000000000000000009D1
:10029000000004040208020822082208220852046E
:1002A0008C03000000000000000000000A00008035
:1002B0000140012001100108010401FE0F000100AE
:1002C00001000000000000000009000000043E08DA
:1002D00022082208220822084204820300000000AB
:1002E000000000000000090000F003480424082278
:1002F00008220822084204800300000000000000D9
:1003000000000008000002000208020682016200EC
:100310001A000600000000000000000000000000BD
:100320000900001803A4044208420842084208A435
:100330000418030000000000000000000009000095
:100340003800440882088208820882048402F80186
:100350000000000000000000000004000000000099
:1003600000300C0000000000000000000000000051
:100370000000000000000004000000000020301C0D
:10038000000000000000000000000000000000006D
:10039000000000000A00000000C000C00020012092
:1003A0000110021002080408040000000000000010
:1003B000000B00000000200120012001200120018D
:1003C00020012001200120010000000000000A009F
:1003D000000000080408041002100220012001C0DF
:1003E00000C0000000000000000000070000040042
:1003F0000200820D420022001C00000000000000EC
:1004000000000000000000000D0000E003180C04D4
:1004100010C4112222122412241224F427040418D6
:1004200004E00300000A000C800360011C010201CB
:1004300002011C0160018003000C000000000000AC
:100440000000090000FE0F220822082208220822CC
:10045000085C048003000000000000000000000AA7
:100460000000F0010C060404020802080208020859
:1004700004040C0600000000000000000A0000FE5A
:100480000F0208020802080208020804040C06F021
:10049000010000000000000000080000FE0F22081C
:1004A000220822082208220822080000000000007A
:1004B000000000000000090000FE0F2200220022C0
:1004C00000220022002200020000000000000000C4
:1004D0000000000B0000F0010C06040402080208F2
:1004E0000208420842084408CC070000000000004F
:1004F0000A0000FE0F200020002000200020002025
:10050000002000FE0F0000000000000000040000BA
:100510000208FE0F020800000000000000000000BA
:1005200000000000000000000000060008000802B3
:100530000802080204FE03000000000000000000A2
:1005400000000000000000090000FE0F80004000D5
:10055000A0001001080204040208000000000000CE
:1005600000000000080000FE0F000800080008005E
:100570000800080008000000000000000000000063
:10058000000C0000FE0F02000C003000C000000351
:10059000C00030000C000200FE0F000000000A0046
:1005A00000FE0F040008003000400080010002003F
:1005B00004FE0F00000000000000000B0000F0012E
:1005C0000C060404020802080208020804040C06CF
:1005D000F001000000000000090000FE0F82008210
:1005E0000082008200820044003800000000000009
:1005F00000000000000B0000F0010C0604040208DB
:1006000002080208023804240C26F0210000000031
:1006100000000A0000FE0F82008200820082004477
:10062000013802000400080000000000000000097A
:1006300000001802240442084208420842088204CA
:100640000403000000000000000000000902000296
:100650000002000200FE0F02000200020002000081
:100660000000000000000000000A0000FE0300047B
:10067000000800080008000800080004FE0300004D
:100680000000000000000A06003800C0000007005B
:100690000800080007C00038000600000000000045
:1006A0000000000D000006003800C003000C8003AD
:1006B0007800060078008003000CC00338000000BA
:1006C00009000002080C061001E000E00010010C17
:1006D00006020800000000000000000000090200FF
:1006E000040018002000C00F2000180004000200C1
:1006F00000000000000000000000090000020C02E1
:100700000A0209C208220812080A080608000000A6
:10071000000000000000000600000000FF3F012074
:100720000120012000000000000000000000000087
:10073000000000000701000E003000C000000300B0
:100740001C0020000000000000000000000000006D
:1007500000050000012001200120FF3F00000000F3
:1007600000000000000000000000000000000B007E
:10077000002000100008000400020002000400082D
:1007800000100020000000000000000A00200020EF
:100790000020002000200020002000200020002059
:1007A0000000000000000000050000000000000143
:1007B0000002000000000000000000000000000037
:1007C00000000000000800000007A0089008900842
:1007D00090089004E00F00000000000000000000FE
:1007E0000000080000FF0F20081008100810082063
:1007F00004C003000000000000000000000000082A
:100800000000C0032004100810081008100820047D
:10081000000000000000000000000000080000C010
:100820000320041008100810081004FF0F00000037
:10083000000000000000000000080000C003A00449
:10084000900890089008A008C00400000000000074
:100850000000000000000600001000FE0F11001153
:100860000011000000000000000000000000000077
:10087000000000080000C0112032102410241024B1
:100880003022F01F00000000000000000000000007
:10089000080000FF0F20001000100010001000E002
:1008A0000F00000000000000000000000002000037
:1008B000F20F000000000000000000000000000037
:1008C00000000000000000000000040020102010C4
:1008D00020F23F00000000000000000000000000C7
:1008E00000000000000000080000FF0F0001800071
:1008F0004001200210040008000000000000000079
:1009000000000000020000FF0F00000000000000D7
:1009100000000000000000000000000000000000D7
:10092000000D00000000F00F20001000100010006B
:10093000E00F2000100010001000E00F0000080081
:1009400000F00F20001000100010001000E00F0059
:100950000000000000000000000000090000C003CB
:10096000200410081008100810082004C00300001C
:100970000000000000000000080000F83F1004081C
:1009800004080408041002E0010000000000000058
:100990000000000000080000E00110020804080444
:1009A00008040802F83F00000000000000000000FA
:1009B0000000060000F00F200010001000100000E2
:1009C0000000000000000000000000000000000720
:1009D000000060049008900810091009200600002B
:1009E00000000000000000000000000006000010F1
:1009F00000FC0710081008100800000000000000AC
:100A0000000000000000000000080000F0070008DF
:100A10000008000800080004F00F000000000000BB
:100A20000000000000000800003000C001000600C7
:100A3000080006C0013000000000000000000000B7
:100A40000000000C00003000C003000C0003C000D8
:100A50003000C0000003000CC003300000000000A4
:100A60000800001008200440028001400220041009
:100A70000800000000000000000000000008000066
:100A80003000C0210022001A0006C0013000000022
:100A900000000000000000000000080000100C1022
:100AA0000A100990085008300810080000000000E3
:100AB00000000000000000080000800080004001ED
:100AC0003E3E022002200220000000000000000044
:100AD0000000000004000000000000FF3F000000D4
:100AE0000000000000000000000000000000000006
:100AF0000009000000000220022002203E3E4001CA
:100B000080008000000000000000000000000B00DA
:100B10000080014000200020004000800000010013
:100B2000018000600000000000000004FE0F0208C9
:100B30000208FE0F0000000000000000000000009E
:100B400000000000000000000A0006C001B0008E96
:100B500000810081008E00B000C00100060000008E
:100B60000000000000090000FF0711041104110437
:100B7000110411042102C001000000000000000067
:100B80000000090000FF07110411041104110411F1
:100B9000042E02C001000000000000000000000957
:100BA0000000FF0701000100010001000100010039
:100BB0000100000000000000000000000A001C000E
:100BC00006C0053F040104010401040104FF0700FD
:100BD0001C0000000000000000080000FF071104D6
:100BE000110411041104110411040000000000009C
:100BF0000000000000000E00000104010206018850
:100C00000050002000FF072000500088000601016E
:100C1000020104080000020201041104110411047D
:100C20002902C601000000000000000000000000D2
:100C30000A0000FF0700020001C0002000180004A5
:100C4000000200FF0700000000000000000A000092
:100C5000FF0700038101C2006200320019000C008E
:100C6000FF070000000000000000090000FF07204F
:100C7000002000580086000101010201040000006C
:100C8000000000000000000A000400040003FF0050
:100C900001000100010001000100FF070000000049
:100CA000000000000C0000FF0701000600180060B3
:100CB0000080016000180006000100FF070000002E
:100CC000000A0000FF0710001000100010001000C4
:100CD00010001000FF0700000000000000000B00E3
:100CE00000F80006030202010401040104010402E9
:100CF000020603F8000000000000000A0000FF07E1
:100D00000100010001000100010001000100FF07D6
:100D10000000000000000000090000FF0741004142
:100D20000041004100410022001C000000000000C2
:100D300000000000000A0000F8000603020201049F
:100D40000104010401040202060300000000000087
:100D50000000090100010001000100FF070100017E
:100D60000001000100000000000000000000000978
:100D7000000003040C043004C003C00030000C0069
:100D80000300000000000000000000000C000070E4
:100D9000008C01040102020202FF070202020204A7
:100DA000018C01700000000000090000010406032E
:100DB0008800700070008800060301040000000035
:100DC0000000000000000A0000FF0700040004000B
:100DD00004000400040004FF07001C0000000000E1
:100DE0000000000A00001F002000400040004000FA
:100DF000400040004000FF0700000000000000002D
:100E00000C0000FF070004000400040004FF0700BA
:100E100004000400040004FF07000000000D0000AF
:100E2000FF070004000400040004FF07000400049E
:100E300000040004FF07001C00000B01000100017A
:100E400000FF07100410041004100410042002C056
:100E5000010000000000000D0000FF071004100456
:100E600010041004100410042002C001000000004F
:100E7000FF070000090000FF071004100410041011
:100E80000410042002C00100000000000000000067
:100E9000000A0000020201041104110411041104EB
:100EA00012021603F80000000000000000000D0010
:100EB00000FF07100010001000F8000603020201F6
:100EC00004010403060603F80000000900041C02E4
:100ED0002201C1004100410041004100FF07000024
:100EE00000000000000000000800008003500448DB
:100EF00004480448044802F0070000000000000015
:100F00000000000000080000F80324041208110883
:100F100011082204C10300000000000000000000CE
:100F20000000080000F80748044804480448044842
:100F300004B00300000000000000000000000007F3
:100F40000000F8070800080008000800080000007A
:100F500000000000000000000000000008001C006D
:100F600007F804080408040804F807001C0000003F
:100F7000000000000000000000080000E001500236
:100F800048044804480450046002000000000000C7
:100F90000000000000000C0000080408021001A07E
:100FA000004000F8074000A00010010802080400FB
:100FB0000000000700001002080448044804480428
:100FC000B00300000000000000000000000000006E
:100FD000080000F80700018000400020001000F821
:100FE00007000000000000000000000000080000F2
:100FF000F80701018200420022001100F8070000FA
:1010000000000000000000000000080000F8074099
:10101000004000A0001001080208040000000000C9
:10102000000000000000000800040004F8030800AD
:10103000080008000800F807000000000000000099
:1010400000000000090000F80710002000C000C0E8
:101050000020001000F80700000000000000000061
:1010600000080000F8074000400040004000400039
:10107000F807000000000000000000000000090068
:1010800000E001100208040804080408041002E04B
:101090000100000000000000000000080000F80748
:1010A00008000800080008000800F8070000000019
:1010B0000000000000000000080000F83F100408D5
:1010C00004080408041002E0010000000000000011
:1010D0000000000000070000E001100208040804FE
:1010E00008041002000000000000000000000000E2
:1010F000000007080008000800F8070800080008BA
:1011000000000000000000000000000000000008D7
:1011100000001800E0000033000C0003E00018009D
:101120000000000000000000000000000C0000E0D3
:10113000011002080408040804FF3F08040804081A
:10114000041002E001000000000800000804100282
:101150002001C0002001100208040000000000006F
:10116000000000000000090000F80700040004006F
:101170000400040004F807001C0000000000000048
:1011800000000008000078008000800080008000DF
:101190008000F807000000000000000000000000D0
:1011A0000C0000F8070004000400040004F8070025
:1011B00004000400040004F807000000000D000013
:1011C000F8070004000400040004F8070004000409
:1011D00000040004F807001C0000090800080008CB
:1011E00000F807400440044004400480030000006D
:1011F000000000000000000B0000F807400440045D
:10120000400440044004800300000000F807000090
:1012100000000000080000F80740044004400440BB
:1012200004400480030000000000000000000000F3
:101230000007000010024804480448045002E0017E
:1012400000000000000000000000000000000C0092
:1012500000F80740004000E00110020804080408FC
:101260000408041002E001000000000800007004FF
:1012700088028801880088008800F80700000000C4
:1012800000000000000000000A0006C001B0008E4F
:1012900000810081008E00B000C001000600000047
:1012A0000000000000090000FF07110411041104F0
:1012B000110411042102C001000000000000000020
:1012C0000000090000FF07110411041104110411AA
:1012D000042E02C001000000000000000000000910
:1012E0000000FF07010001000100010001000100F2
:1012F0000100000000000000000000000A001C00C7
:1013000006C0053F040104010401040104FF0700B5
:101310001C0000000000000000080000FF0711048E
:101320001104110411041104110400000000000054
:101330000000000000000E00000104010206018808
:101340000050002000FF0720005000880006010127
:101350000201040800000202010411041104110436
:101360002902C6010000000000000000000000008B
:101370000A0000FF0700020001C00020001800045E
:10138000000200FF0700000000000000000A00004B
:10139000FF0700038101C2006200320019000C0047
:1013A000FF070000000000000000090000FF072008
:1013B0000020005800860001010102010400000025
:1013C000000000000000000A000400040003FF0009
:1013D00001000100010001000100FF070000000002
:1013E000000000000C0000FF07010006001800606C
:1013F0000080016000180006000100FF07000000E7
:10140000000A0000FF07100010001000100010007C
:1014100010001000FF0700000000000000000B009B
:1014200000F80006030202010401040104010402A1
:10143000020603F8000000000000000A0000FF0799
:101440000100010001000100010001000100FF078F
:101450000000000000000000090000FF07410041FB
:101460000041004100410022001C0000000000007B
:1014700000000000000A0000F80006030202010458
:101480000104010401040202060300000000000040
:101490000000090100010001000100FF0701000137
:1014A0000001000100000000000000000000000931
:1014B000000003040C043004C003C00030000C0022
:1014C0000300000000000000000000000C0000709D
:1014D000008C01040102020202FF07020202020460
:1014E000018C0170000000000009000001040603E7
:1014F00088007000700088000603010400000000EE
:101500000000000000000A0000FF070004000400C3
:1015100004000400040004FF07001C000000000099
:101520000000000A00001F002000400040004000B2
:10153000400040004000FF070000000000000000E5
:101540000C0000FF070004000400040004FF070073
:1015500004000400040004FF07000000000D000068
:10156000FF070004000400040004FF070004000457
:1015700000040004FF07001C00000B010001000133
:1015800000FF07100410041004100410042002C00F
:10159000010000000000000D0000FF07100410040F
:1015A00010041004100410042002C0010000000008
:1015B000FF070000090000FF0710041004100410CA
:1015C0000410042002C00100000000000000000020
:1015D000000A0000020201041104110411041104A4
:1015E00012021603F80000000000000000000D00C9
:1015F00000FF07100010001000F8000603020201AF
:1016000004010403060603F80000000900041C029C
:101610002201C1004100410041004100FF070000DC
:101620000000000000000000080000800350044893
:1016300004480448044802F00700000000000000CD
:101640000000000000080000F8032404120811083C
:1016500011082204C1030000000000000000000087
:101660000000080000F807480448044804480448FB
:1016700004B00300000000000000000000000007AC
:101680000000F80708000800080008000800000033
:1016900000000000000000000000000008001C0026
:1016A00007F804080408040804F807001C000000F8
:1016B000000000000000000000080000E0015002EF
:1016C0004804480448045004600200000000000080
:1016D0000000000000000C0000080408021001A037
:1016E000004000F8074000A00010010802080400B4
:1016F00000000007000010020804480448044804E1
:10170000B003000000000000000000000000000026
:10171000080000F80700018000400020001000F8D9
:1017200007000000000000000000000000080000AA
:10173000F80701018200420022001100F8070000B2
:1017400000000000000000000000080000F8074052
:10175000004000A000100108020804000000000082
:10176000000000000000000800040004F803080066
:10177000080008000800F807000000000000000052
:1017800000000000090000F80710002000C000C0A1
:101790000020001000F8070000000000000000001A
:1017A00000080000F80740004000400040004000F2
:1017B000F807000000000000000000000000090021
:1017C00000E001100208040804080408041002E004
:1017D0000100000000000000000000080000F80701
:1017E00008000800080008000800F80700000000D2
:1017F0000000000000000000080000F83F1004088E
:1018000004080408041002E00100000000000000C9
:101810000000000000070000E001100208040804B6
:10182000080410020000000000000000000000009A
:10183000000007080008000800F807080008000872
:101840000000000000000000000000000000000890
:1018500000001800E0000033000C0003E000180056
:101860000000000000000000000000000C0000E08C
:10187000011002080408040804FF3F0804080408D3
:10188000041002E00100000000080000080410023B
:101890002001C00020011002080400000000000028
:1018A000000000000000090000F807000400040028
:1018B0000400040004F807001C0000000000000001
:1018C0000000000800007800800080008000800098
:1018D0008000F80700000000000000000000000089
:1018E0000C0000F8070004000400040004F80700DE
:1018F00004000400040004F807000000000D0000CC
:10190000F8070004000400040004F80700040004C1
:1019100000040004F807001C000009080008000883
:1019200000F8074004400440044004800300000025
:10193000000000000000000B0000F8074004400415
:10194000400440044004800300000000F807000049
:1019500000000000080000F8074004400440044074
:1019600004400480030000000000000000000000AC
:101970000007000010024804480448045002E00137
:1019800000000000000000000000000000000C004B
:1019900000F80740004000E00110020804080408B5
:1019A0000408041002E001000000000800007004B8
:1019B00088028801880088008800F807000000007D
:1019C00000000000000000001027E80364000A0087
:1019D00001000010000110000100FF00FF000000E6
:1019E00000000500D3F1F22E20F0CD3D00D2E5EA53
:1019F0002E2070483D00D3F1F22E2074273D202088
:101A0000202020202AD100D2E5EA2E2074273D2074
:101A100020202020202AD100C2F0E5ECFF3A00CFA0
:101A2000F0EEE3F02E3A00C5F9E520313A00C5F9B1
:101A3000E520323A00C5F9E520333A002569200057
:101A400008000300DA190000F894EE27EFBBF1E07C
:101A5000F5BFE5BF8DE0A2E0BB27ED938A95E9F7DE
:101A600080E098E0A0E0B1E0ED930197E9F7E0E4D1
:101A7000FAE185919591009761F0A591B591059056
:101A80001590BF01F00105900D920197E1F7FB0160
:101A9000F0CFE0E0EEBBEFEFEDBFE8E0EEBFC0E07F
:101AA000D3E00C942E0EAA935F98A8810E94080F91
:101AB0005F9A21960895AA93289A5F98A8810E9418
:101AC000080F5F9A2898219608950E942B113E2EA8
:101AD0004F2E0E9438115E2E6F2E239608950E947D
:101AE0002B117E2E8F2E0E9438119E2EAF2E239604
:101AF0000895AA930E940C12EE81EE0FEE0FEE0FE6
:101B0000AE2FED81E695E695E695EA0F3E2FED8145
:101B1000EF71E295E07FEE0FAC81EA0F2E2F5F9818
:101B2000ACE20E94080F289A00E010E00030E0E4E8
:101B30001E0710F00C94A50DA32F0E94080FA22FD2
:101B40000E94080F0F5F1F4FF1CF28985F9A0E94E5
:101B5000131227960895AA93ABE20E9445110895A7
:101B6000AA93AAE20E9445110895BA93AA930E94EB
:101B70000C12EF81AEE0EA020A92E885EA02F00177
:101B8000E35FAE2F0E94B00DEE81EE0FEE0FEE0F71
:101B9000EA93AFE70E94AB0D5F98ACE20E94080F9A
:101BA000289A20E0EE81F0E0A0E2B0E00E9403126B
:101BB000EA1BFB0BA22FB0E0AE17BF0714F00C948A
:101BC000280E0E945511E03011F00C94E80D40C031
:101BD0000E945511E052BE2E00E00E945C11E4917B
:101BE0000E1710F00C94260E30E0383010F00C94E4
:101BF0000C0E0E945C11BF01A2E00A9FF001319619
:101C00000E94631111F40C94080E0E94711102C01D
:101C10000E9477113F5FE9CF30E0363010F00C942E
:101C2000240E0E945C11BF01A2E00A9FF0013296CF
:101C30000E94631111F40C94200E0E94711102C0D5
:101C40000E9477113F5FE9CF0F5FC7CF2F5FAACF09
:101C500028985F9A0E941312289608955F9A299AED
:101C6000EFE2E4B9E2E0E5B9579AE8E5ECBDE1E07E
:101C7000EDBD2998AAE0B0E00E94CB11299AAAE014
:101C8000B0E00E94CB115F98A9E20E94080F5F9A12
:101C9000A1E10E94530DA6E30E94530DA8EE0E94FD
:101CA0005B0DAAE30E94530DA5E60E945B0D2898E8
:101CB0005F98ACE20E94080F5F9A289A5F98DD2433
:101CC000EE24E0E0F0E6DE16EF0610F00C94760E5F
:101CD000A4E00E94080FA4E10E94080FA4E40E945F
:101CE000080FE1E0F0E0DE0EEF1EEBCF28985F9AE0
:101CF000E1E0EA93EA93A1E00E94790DE4E1EA933E
:101D0000EA93A5E00E94650DE1E0EA93EA93A2E080
:101D10000E946F0D0E947D11E4EEF9E10E94821194
:101D2000E0E00E948911EDEEF9E10E948211E1E00C
:101D30000E948911E6EFF9E10E948211E2E00E941F
:101D40008911E7E0FAE10E948211E3E00E94891123
:101D5000E8E1FAE10E948211E4E00E948911EFE1DA
:101D6000FAE10E948211E5E00E948911E7E2FAE1BE
:101D70000E948211E6E00E948911EEE2FAE10E94DF
:101D80008211E7E00E948911E5E3FAE10E948211E5
:101D9000E8E0EA93E0E00E9491110E947D11ECE3FB
:101DA000FAE1FA93EA93E0911003F09111036627A8
:101DB00077270E94FE1184E00E94D7102896E0E069
:101DC000EA93E9E00E949111E1E0EA93E9E00E94E0
:101DD0009111E2E0EA93E8E00E949111E3E0EA93D6
:101DE000E8E00E949111E4E00E949611E5E00E9473
:101DF0009611E6E00E949611E7E00E949611E8E055
:101E00000E949611A0E1B3E00E949911C6CFFFCFC6
:101E1000AA93E881EEBDEDB5E7FD01C0FCCFEEB5BC
:101E200021960895BA93AA931A930A93AA81BB8123
:101E300012960E94F611309711F40C944B0FAA8160
:101E4000BB8114960E94F6118F01309711F00C940B
:101E50002A0F0EC00230E0E01E0710F40C94400F71
:101E6000F80131978F01AA81BB811496ED93FC9301
:101E7000AA81BB8112960E9499113197AC81A083EF
:101E8000AA81BB810E94F611FF2312F40C944A0F21
:101E90000E94991106C0AA81BB81EFEFFFEFED937D
:101EA000FC931981088125960895BA93AA932697E1
:101EB0000E940A1210E0AC85BD85E0E0F0E0ED93F1
:101EC000FC93EA89FB893196EA8BFB8B3197E4918D
:101ED0002E2FE03011F40C94CF10E12FE03011F0F0
:101EE0000C947B0F253211F00C94780F11E002C096
:101EF0000E949F1153C1E13011F00C949D0F2532C7
:101F000011F00C94870F0E949F1110E047C112E05E
:101F100040E000E02D3211F00C94900F01E03EC142
:101F20002B3211F00C94960F4BE238C1203211F095
:101F30000C949C0F40E232C104C0E23011F00C94CA
:101F4000AA0F50E013E0203311F00C94A90F0068A1
:101F500025C104C0E33011F00C94CE10203310F4EE
:101F60000C94B70F2A3310F00C94B70F01C007C0C0
:101F7000AAE05A9F502DE22FE0535E0F0FC1E22FCF
:101F8000E33611F00C94CE0F0E94A611E889F9896E
:101F9000A481AA930E94AC1100C104C0E33711F0E0
:101FA0000C94DB0F0E94A6110E94B2110E94121124
:101FB0001E2F0DC004C0E03711F00C94EC0F0E94EE
:101FC000A6110E94B2110E941E111E2F086002600D
:101FD0000F7730E044C004C0E43611F00C94F10FE8
:101FE00004C0E93611F00C94F70F046004C0E53723
:101FF00011F00C940210E8ECF9E1EE83FF8315E098
:1020000010C004C0E83511F00C940810086004C03A
:10201000E83711F00C94CD10E2EDF9E1EE83FF8387
:1020200014E002FF18C00E94A6110E94BC11AB85EB
:10203000AA2312F00C942310EA85FB850E94D91183
:10204000EA87FB874DE2403011F40C9429101F5FA2
:1020500001C00B7F04C00E94A6110E94BC1100FDAC
:1020600013C0151710F00C94441007FF08C002FFAE
:1020700004C00B7F242F115001C020E301C020E2D7
:102080000E949F115150EDCF312F01FF1BC0303006
:1020900011F40C94611003FF06C0EE81FF812591BD
:1020A000EE83FF8305C0AE81BF812D91AE83BF83D8
:1020B0000E949F11503011F40C945F105150315018
:1020C000E6CF5FC020E3EE81FF810E94FA11E8872E
:1020D000F987EE81FF813296EE83FF83E885F985EB
:1020E000AA85BB85AE17BF0710F40C9481102F5F33
:1020F000A885B985EA85FB85EA1BFB0BEA87FB8788
:10210000EDCF2A3310F40C948A1003FF02C0295F2C
:1021100001C0295D04FF01C025C0213310F00C94DB
:102120009810A885B985119711F40C94981002C0E5
:1021300000610DC0531710F40C94A11000FD01C0F4
:1021400001C017C020E207FF0DC020E3006102FFBD
:1021500009C00B7F4A930E94AC11503011F40C94CB
:10216000B21051500E949F11503011F40C94B910CC
:1021700051503150A885B985129710F40C94C110B4
:10218000A1CF00FF0AC0503011F40C94CD10515073
:10219000E0E2EA930E94AC11F6CF10E092CEAC855B
:1021A000BD850E94F6110E94111264960895FF9257
:1021B000F82E26970E940C120E94C411309711F03D
:1021C0000C94E910EFEFFFEF0E9413122A96FF9094
:1021D0000895DE0116960E94D5118D010E94C4114A
:1021E000EE83FF83E0E0E887E987DE011A960E942C
:1021F000D5110E94F611FA93EA931A930A93E2E139
:10220000FFE0FA93EA93DE011A960E94550F9F01B0
:10221000AE81BF81E0E0EC93F9010E9413122A968F
:10222000FF900895BA93AA93A991B991EE27FF2739
:102230006D91662311F03196FBCF0895BA93AA935E
:10224000AA27BB27E991F9910590002011F011967A
:10225000FBCFFD010895AA93EA81F0E00E94E81106
:10226000DF01E981F0E00E94EF11EA0FFB1F089502
:10227000E981F0E0EF71F070EE0F0E94E611DF01EE
:10228000E881F0E0EA0FFB1F08950E94530DA0E0E3
:102290000E945B0DA9810E945B0DA0E00E945B0D76
:1022A000A8810E945B0D22960895AC81BD81EE2726
:1022B000A20FBE1FEC910895EB2DADE1EA9FF00156
:1022C000E859FF4F0895E60FF71F1490E32FA1E0A0
:1022D000B0E00E94DD11A12DB0E0EA23FB2330978E
:1022E0000895A32D0E94080FA52D0C94080FA72D6B
:1022F0000E94080FA92D0C94080FE0E0F3E0FA9378
:10230000EA930895FA93EA9380E00E94D710249606
:102310000895EA93E0E0EA93A0E0B3E00E94B50DEF
:10232000ECCFEA93A0E0B3E00C94B50DEA93E7E0BC
:10233000F8CFED91FD913196FE93EE9308952A9397
:10234000AD85BE85EF85F88909950895E889F989F5
:102350003497E88BF98B0895AD85BE85EF85F889B4
:1023600009950895A889B98914960E94F611EE83FB
:10237000FF83AE81BF810895A889B98914960E9410
:10238000F611EA87FB870895DE011C960E94D5119D
:102390000E94F6110895109639F080EA9FE00197A7
:1023A000F1F7A8951197C9F708950024AF0DB01D56
:1023B0000895F195E195F0400895EE230E2EFD016C
:1023C00021F0EE0FFF1F0A94E1F70895EE0FFF1FB3
:1023D000EE0FFF1FEE0FFF1FEE0FFF1F0895F59585
:1023E000E795F595E795F595E7950895ED91FC91BD
:1023F000119708950590F491E02D08957A936A93CA
:10240000FA93EA9308951B2EBF2FF12D1A2EAE2FAB
:10241000E12D08955A934A933A932A931A930A9373
:1024200008955D814C813B812A811981088108953D
:00000001FF
