:060000000C9434000C9486
:1000060000000C9400000C9400000C9400000C946A
:1000160000000C9400000C9400000C9400000C945A
:1000260000000C9400000C9400000C9400000C944A
:1000360000000C9400000C9400000C9400000C943A
:1000460000000C9400000C9400000C9400000C942A
:1000560000000C9400000C9400000C9400000C941A
:100066000000F894EE27EFBBF1E0F5BFE5BF8DE0A9
:10007600A2E0BB27ED938A95E9F780E098E0A0E03F
:10008600B1E0ED930197E9F7E0E0EEBBEFEFEDBFEE
:10009600E8E0EEBFC0E0D3E00C947B00AA935F9843
:1000A600A88178D05F9A7DC0AA93289A5F98A88184
:1000B60071D05F9A289875C0AA931A930A935F988D
:1000C600ACE268D0289A00E010E00030E0E41E07B9
:1000D60048F4EC8168D0EB8166D0EA8164D00F5F8A
:1000E6001F4FF3CF28985F9A1981088125960895A6
:1000F6005F9A299AEFE2E4B9E2E0E5B9579AE0E5BA
:10010600ECBDE0E0EDBD2998AAE0B0E00E94E10078
:10011600299AAAE0B0E00E94E1005F98A9E23AD0ED
:100126005F9A5F98A1E136D05F9AA6E3B7DFA8ECA5
:10013600BBDF28985F98ACE22DD05F9A289A5F982B
:1001460033244424E0E0F0E43E164F0658F4A4E0DD
:1001560021D0A4E01FD0A4E01DD0E1E0F0E03E0EE7
:100166004F1EF0CF28985F9A85E38A95F1F7E0E075
:10017600EA93EFE31CD0E0E0EA93EA93AFE39CDF77
:10018600A4EFB1E00E94E100EFE3EA93E0E00FD0D4
:10019600EECFFFCFAA93E881EEBDEDB5E7FFFDCF29
:1001A600EEB521960895EE0FEE0FAE2FF3CFEA933C
:1001B600A0E082DFA4EFB1E00C94E100109639F0E4
:1001C60080EA9FE00197F1F7A8951197C9F708957E
:00000001FF
