:0E0000000C948F060C9400000C9400000C94DD
:10000E0000000C9400000C9400000C9400000C9462
:10001E0000000C9400000C9400000C9400000C9452
:10002E0000000C9400000C9400000C9400000C9442
:10003E0000000C9400000C9400000C9400000C9432
:10004E0000000C9400000C9400000C9400000C9422
:10005E0000000C9400000C94000000000000000052
:10006E00005F00000007000700147F147F14242A8D
:10007E007F2A122313086462364955225000050365
:10008E000000001C2241000041221C0014083E0802
:10009E001408083E08080050300000080808080838
:1000AE00006060000020100804023E5149453E00E9
:1000BE00427F400042615149462141454B3118145F
:1000CE00127F1027454545393C4A4949300171098F
:1000DE0005033649494936064949291E0036360078
:1000EE000000563600000814224100141414141493
:1000FE0000412214080201510906324979413E7E1F
:10010E001111117E7F494949363E414141227F41BD
:10011E0041221C7F494949417F090909013E414954
:10012E00497A7F0808087F00417F41002040413F07
:10013E00017F081422417F404040407F020C027F25
:10014E007F0408107F3E4141413E7F090909063E6A
:10015E004151215E7F09192946464949493101011C
:10016E007F01013F4040403F1F2040201F3F40384D
:10017E00403F63140814630708700807615149452E
:10018E0043007F41410002040810200041417F00DE
:10019E0004020102044040404040000102040020DD
:1001AE00545454787F4844443838444444203844A6
:1001BE0044487F3854545418087E0901020C525298
:1001CE00523E7F0804047800447D40002040443DA8
:1001DE00007F1028440000417F40007C0418047802
:1001EE007C0804047838444444387C1414140808F9
:1001FE001414187C7C080404080854545420043F3A
:10020E004440203C4040207C1C2040201C3C403080
:10021E00403C44281028440C5050503C4464544CEC
:10022E0044000836410000007F00000041360800FF
:10023E0010080810087846414678000000000000BB
:10024E00005F00000007000700147F147F14242AAB
:10025E007F2A122313086462364955225000050383
:10026E000000001C2241000041221C0014083E0820
:10027E001408083E08080050300000080808080856
:10028E000060600000201008040200000000000062
:10029E00005F00000007000700147F147F14242A5B
:1002AE007F2A122313086462364955225000050333
:1002BE000000001C2241000041221C0014083E08D0
:1002CE001408083E08080050300000080808080806
:1002DE000060600000201008040200000000000012
:1002EE00005F00000007000700147F147F14242A0B
:1002FE007F2A1223130864623649552250000503E3
:10030E000000001C2241000041221C0014083E087F
:10031E001408083E080800503000000808080808B5
:10032E0000606000002010080402000609090600A3
:10033E00427F400042615149462141454B311814DC
:10034E00127F1027454545393C4A4949300171090C
:10035E0005033649494936064949291E00363600F5
:10036E000000563600000814224100141414141410
:10037E00004122140802015109067E1111117E7FDF
:10038E00494949317F494949367F01010103603EA0
:10039E0021217F7F4949494177087F0877224149CA
:1003AE0049367F1008047F7F1009047F7F081422CE
:1003BE0041403E01017F7F020C027F7F0808087FCB
:1003CE003E4141413E7F0101017F7F090909063E01
:1003DE004141412201017F0101274848483F1E212A
:1003EE007F211E63140814633F20203F6007080816
:1003FE00087F7F407F407F3F203F207F017F48481E
:10040E00307F4830007F007F484830224149493EC6
:10041E007F083E413E462919097F20545454783CAA
:10042E004A4A4A307C545428007C04040404603840
:10043E0024247C38545454186C107C106C00445492
:10044E0054287C2010087C7C2112097C7C102844C6
:10045E0000403804047C7C0810087C7C1010107C52
:10046E0038444444387C0404047C7C141414083846
:10047E004444440004047C04040C5050503C0814C2
:10048E007C140844281028443C20203C600C10109A
:10049E00107C7C407C407C3C203C207C047C50507A
:1004AE00207C5020007C007C50502028445454382E
:1004BE007C10384438485434147C05000000000089
:1004CE0000000005000000009F0000000700000F64
:1004DE0003000F03000700A47E25A47E250007005D
:1004EE00002E2A7F2A3A000600121552A848000054
:1004FE00080000609C92EA6CA0040000000F00004F
:10050E0000000600000000FC03000004000003FCD5
:10051E0000000000070000021A071A02000800106F
:10052E001010FE10101005000000C0400000000763
:10053E00001010101010100005000000C0C00000C8
:10054E000006008060180601000007007E81818190
:10055E00817E000700008282FF8080000600C2A11B
:10056E009189C60000060042818989760000070045
:10057E00101C1291FF90000700408F89898971002D
:10058E000700007C8A898971000700030101E119C7
:10059E00070007007689898989760007008E919178
:1005AE0091513E0005000000CCCC0000000500007B
:1005BE0080CC4C0000000700101028444482000735
:1005CE00001414141414140007008244442810104C
:1005DE00000700000281A1110E000600FF00182482
:1005EE00BF0000080080C0BD23BCC080070081FF93
:1005FE00898989760007003C42818181430007008A
:10060E0081FF8181423C00070081FF899D81C300EB
:10061E00070081FF891D01030008003C4281819182
:10062E007310080081FF890889FF8107000081810E
:10063E00FF8181000700708081817F0100080081A9
:10064E00FF911825C381070081FF818080E000089B
:10065E000081FF871887FF810881FF830C30C1FF5F
:10066E000108003C42818181423C070081FF9111CB
:10067E00110E0008003C42818181423C080081FF3E
:10068E009111314E800700C64989898A730008008E
:10069E00030181FF8101030800017F8180817F01B9
:1006AE0008010739C0C03907010800017F81788130
:1006BE007F01080081C3A518A5C381080001038D21
:1006CE00F08D0301070000C3A19985C30006000049
:1006DE0000FF010100000500010638C00000000403
:1006EE00000101FF000000000600040201020400E8
:1006FE0000010000000000000000050000000102E3
:10070E0000000008006894949454F8800781FF4814
:10071E008484847800070078848484884C000800E0
:10072E007884848449FF8007007894949494980088
:10073E0007008484FE8585850008007884848448BB
:10074E00FC04080081FF880484F88007000084847C
:10075E00FD808000060000040405FC0000080081F6
:10076E00FF1034CC84840700008081FF8080000855
:10077E0084FC8804F88804F8080084FC880484F853
:10078E0080070078848484847800070004FC8884C1
:10079E0084780008007884848448FC04070084FC74
:1007AE0088848404000700C8949494946C00070015
:1007BE00047E84848440000800047C808044FC8095
:1007CE0008040C34C0C0340C040800047C8470840B
:1007DE007C04070084CC3030CC84000800041C64F8
:1007EE0080641C04070000CCA4948CC40005000097
:1007FE0010EE0100000004000000FF0000000005E4
:10080E00000001EE1000000007001008081010088C
:10081E000003FF00FF0000000000010000000000C8
:10082E0000000001000000000000000001000000B8
:10083E0000000000000100000000000000000100A8
:10084E000000000000000001000000000000000099
:10085E000100000000000000000100000000000088
:10086E000000010000000000000000010000000078
:10087E000000000001000000000000000001000068
:10088E000000000000000100000000000000000158
:10089E000000000000000000010000000000000049
:1008AE000001000000000000000001000000000038
:1008BE000000000100000000000000000100000028
:1008CE000000000000010000000000000000010018
:1008DE000000000000000001000000000000000009
:1008EE0001000000000000000001000000000000F8
:1008FE0000000100000000000000000100000000E8
:10090E0000000000010000000000000000010000D7
:10091E0000000000000001000000000000000001C7
:10092E0000000000000000000100000000000000B8
:10093E0000010000000000000000010000000000A7
:10094E000000000500000000E40000000700003871
:10095E0044C6442800070090DEB19182C000070013
:10096E00423C24243C42000800012BADF8AD2B0183
:10097E0004000000CF0000000007009C172549D19D
:10098E007300060000010000010000083C4299A51A
:10099E00A5A5423C0600000D0D0F08000007002023
:1009AE0050882050880007101010101010F000070B
:1009BE000010101010101000083C42A5BDB5AD423D
:1009CE003C010000000000000000060000030404CB
:1009DE000300000800888888FF8888880600000ABF
:1009EE000D0B08000006000009090B0F00000500A2
:1009FE00000002010000000704FC808044FC80001F
:100A0E0008000E1111FF01FF010600000000000892
:100A1E000000050000000080000000060000000934
:100A2E000F080000060000060909060000070088EE
:100A3E0050208850200008111F301070D8F8C408BC
:100A4E00092F18080894D2B008094B2F1070D8F44B
:100A5E00C20500C0201404000000080080C0BD23A1
:100A6E00BCC080080080C0BD23BCC080080080C010
:100A7E00BD23BCC080080080C0BD23BCC080080060
:100A8E0080C0BD23BCC080080080C0BD23BCC08018
:100A9E000880E09D93FF899DC307003C42818181C0
:100AAE004300070081FF899D81C300070081FF89F4
:100ABE009D81C300070081FF899D81C300070081CE
:100ACE00FF899D81C3000700008181FF818100079E
:100ADE0000008181FF8181000700008181FF8181FB
:100AEE00000700008181FF818100070089FF898155
:100AFE00423C000881FF830C30C1FF0108003C42DC
:100B0E00818181423C08003C42818181423C080047
:100B1E003C42818181423C08003C42818181423CC1
:100B2E0008003C42818181423C06000024181824B2
:100B3E0000000800BC42B18985423D0800017F815A
:100B4E0080817F010800017F8180817F0108000183
:100B5E007F8180817F010800017F8180817F010874
:100B6E000001038DF08D0301070081FFA5242418D9
:100B7E0000070080FE81C996700008006894949565
:100B8E0054F88008006894949554F880080068948E
:100B9E00959455F88008006895949555F88008004E
:100BAE006895949455F88008006894959555F8804A
:100BBE0008609494F89494949807007884848488B8
:100BCE004C000700789494959498000700789495BB
:100BDE00949498000700789495949598000700785F
:100BEE009594949598000700008484FD80800007FA
:100BFE0000008485FC8080000700008485FC8180D5
:100C0E00000700008584FC8180000700708C8B8AB1
:100C1E00957800080084FD880585F88007007884A3
:100C2E0084858478000700788485848478000700A2
:100C3E00788485848578000700788584858578009A
:100C4E0007007885848485780006001010921010B5
:100C5E0000000700B844A4948874000800047C8047
:100C6E008144FC800800047C808144FC80080004E0
:100C7E007C818045FC800800047D808045FC8008D6
:100C8E0000041C6481641C040701FF48848484787A
:100C9E00000800041C6580641D041027E80364002E
:100CAE000A0001000010000110000100FF00FF000B
:100CBE00000000000500D3F1F22E70483D202020E8
:100CCE00202000D3F1F22E74273D20202020430057
:100CDE00D2E5EA2E70483D202020202000D2E5EA01
:100CEE002E74273D20202020D100C2F0E5ECFF3AE3
:100CFE0020202020202000CFF0EEE3F02E3A2020FE
:100D0E00202025250025690008000300BA0C0000EC
:100D1E00F894EE27EFBBF1E0F5BFE5BF8DE0A2E062
:100D2E00BB27ED938A95E9F780E098E0A0E0B1E06B
:100D3E00ED930197E9F7E6E1FDE085919591009736
:100D4E0061F0A591B59105901590BF01F001059048
:100D5E000D920197E1F7FB01F0CFE0E0EEBBEFEF74
:100D6E00EDBFE8E0EEBFC0E0D3E00C941508AA9307
:100D7E005F98A8815FD25F9A64C2AA93289A5F98FF
:100D8E00A88158D25F9A28985CC2AA93EA81F0E0B3
:100D9E000E94500BDF01E981F0E00E94570BEA0F31
:100DAE00FB1F3E2E4F2EE981F0E0EF71F070EE0F3B
:100DBE000E944E0BDF01E881F0E0EA0FFB1F5E2E72
:100DCE006F2E1CC0AA93EA81F0E00E94500BDF0147
:100DDE00E981F0E00E94570BEA0FFB1F7E2E8F2E4B
:100DEE00E981F0E0EF71F070EE0F0E944E0BDF0123
:100DFE00E881F0E0EA0FFB1F9E2EAF2E239608959A
:100E0E00AA930E949B0BEE81EE0FEE0FEE0FAE2F0C
:100E1E00ED81E695E695E695EA0F3E2FED81EF71B1
:100E2E00E295E07FEE0FAC81EA0F2E2F5F98ACE2D9
:100E3E0001D2289A00E010E00030E0E41E0738F4FA
:100E4E00A32FF8D1A22FF6D10F5F1F4FF5CF289801
:100E5E005F9A0E94A20B27960895AA93ABE202C056
:100E6E00AA93AAE284DFA0E088DFA98186DFA0E052
:100E7E0084DFA88182DF22960895BA93AA930E94F6
:100E8E009B0BEF81A5E1EA020A92E885EA02F001E6
:100E9E00EC5EAE2FE5DFEE81AAE0EA020A92EF8168
:100EAE00EA02F001AE2FD9DF1FE0AC81BD81EE2743
:100EBE00A10FBE1FEC91E03011F41150F6CF00E0FF
:100ECE00E12FF0E03196A02FB0E0AE17BF070CF087
:100EDE0059C05F98ACE2AED1289AAC81BD81EE27A5
:100EEE00A00FBE1FEC91E052BE2E20E02A3008F07B
:100EFE0047C02898EE81AAE0EA02602D0A02F001AE
:100F0E00E60FE20FEA93EF81EA02602D0A02F0018A
:100F1E00E60FE20FAE2FA1DF5F98ACE28BD1289ADD
:100F2E00A22FB0E0E2E0F0E00E94790BCE2E30E08E
:100F3E00353120F5EB2DA5E0EA9FF001E859FF4F82
:100F4E00DF01EC2DF0E0EA0FFB1F1490E32FF0E031
:100F5E00F595E795A1E0B0E00E94450BA12DB0E01C
:100F6E00EA23FB23309721F0A32D64D1A52D03C0D6
:100F7E00A72D60D1A92D5ED13F5FDACF2F5FB6CFFF
:100F8E000F5F9ECF28985F9A0E94A20B2896089515
:100F9E00AA930E949B0BE1E0EA93EA93A1E030DF73
:100FAE00E0E0EA93AFE759DFE0E0EA93A7E058DF2D
:100FBE005F98ACE23FD1289A01E0093048F530E065
:100FCE00383020F5EC81F0E03197A9E0B0E00E94D6
:100FDE005E0BE853FB4FDF01E02FF0E0EA0FFB1F43
:100FEE001490E32FA1E0B0E00E94450BA12DB0E0DC
:100FFE00EA23FB23309721F0A32D1CD1A52D03C08E
:10100E00A72D18D1A92D16D13F5FDACF0F5FD5CFFF
:10101E0028985F9A0E94A20B0C9468095F9A299AED
:10102E00EFE2E4B9E2E0E5B9579AE8E5ECBDE1E0BC
:10103E00EDBD2998AAE0B0E00E94330B299AAAE0F0
:10104E00B0E00E94330B5F98A9E2F4D05F9AA1E161
:10105E008EDEA6E38CDEA8EE90DEAAE388DEA5E6A1
:10106E008CDE28985F98ACE2E5D05F9A289A5F985C
:10107E00DD24EE24E0E0F0E6DE16EF0658F4A4E000
:10108E00D9D0A4E1D7D0A4E4D5D0E1E0F0E0DE0ED3
:10109E00EF1EF0CF28985F9AE1E0EA93EA93A1E081
:1010AE00AFDEEFE1EA93E7E3EA93A4E16EDEE1E07F
:1010BE00EA93EA93A1E086DEAFEA6ADFFFCFE0E0D3
:1010CE00E0930103E0E0F3E0FA93EA93E3E1FDE05D
:1010DE00FA93EA93E0911003F091110366277727B4
:1010EE000E94940B84E00E94DE0A2896E0E0EA93C8
:1010FE00E8E0EA93A0E0B3E0C0DEE0E0E0930103B5
:10110E00E0E0F3E0FA93EA93E3E1FDE0FA93EA9389
:10111E00E0911003F0911103662777270E94940B3C
:10112E0084E00E94DE0A2896E1E0EA93E8E0EA9382
:10113E00A0E0B3E0A2DEE0E0E0930103E0E0F3E044
:10114E00FA93EA93E3E1FDE0FA93EA93E091100358
:10115E00F0911103662777270E94940B84E00E947A
:10116E00DE0A2896E2E0EA93E8E0EA93A0E0B3E034
:10117E0084DEE0E0E0930103E0E0F3E0FA93EA932B
:10118E00E3E1FDE0FA93EA93E0911003F09111038D
:10119E00662777270E94940B84E00E94DE0A289629
:1011AE00E3E0EA93E8E0EA93A0E0B3E066DEE0E095
:1011BE00E0930103E0E0F3E0FA93EA93E3E1FDE06C
:1011CE00FA93EA93E0911003F091110366277727C3
:1011DE000E94940B84E00E94DE0A2896E4E0EA93D3
:1011EE00E7E0EA93A0E0B3E048DEE0E0E09301033D
:1011FE00E0E0F3E0FA93EA93E3E1FDE0FA93EA9399
:10120E00E7E1F0E060E070E00E94940B84E00E9461
:10121E00DE0A2896E5E0EA93E8E0EA93A0E0B3E080
:10122E002CDEA0E1B3E0ED91FD913196FE93EE93AD
:10123E0046CFFFCFAA93E881EEBDEDB5E7FFFDCF18
:10124E00EEB521960895BA93AA931A930A93AA819A
:10125E00BB8112960E948C0B309759F1AA81BB81EB
:10126E0014960E948C0B8F01309761F00230E0E0F3
:10127E001E0798F0F80131978F01AA81BB81149651
:10128E00ED93FC93AA81BB811296ED91FD9131965F
:10129E00FE93EE933197AC81A083AA81BB810E940D
:1012AE008C0BFF232AF0ED91FD913196FE93EE9378
:1012BE0006C0AA81BB81EFEFFFEFED93FC9319817E
:1012CE00088125960895BA93AA9326970E94990BA2
:1012DE0010E0AC85BD85E0E0F0E0ED93FC93EA898B
:1012EE00FB893196EA8BFB8B3197E4912E2FE03000
:1012FE0009F455C1E12FE03059F4253211F411E013
:10130E0006C02A93AD85BE85EF85F889099546C13D
:10131E00E130C9F4253239F42A93AD85BE85EF85C7
:10132E00F88909953AC112E040E000E02D3211F43F
:10133E0001E034C12B3211F44BE230C1203211F4F2
:10134E0040E22CC102C0E23039F450E013E0203309
:10135E0011F4006823C103C0E33009F01FC120332C
:10136E0010F02A3308F007C0AAE05A9F502DE22F42
:10137E00E0535E0F13C1E22FE33669F4E889F98971
:10138E003497E88BF98BA481AA93AD85BE85EF8542
:10139E00F889099502C1E33791F4E889F989349700
:1013AE00E88BF98BA889B98914960E948C0BEE8371
:1013BE00FF83AE81BF810E941A0B1E2F14C0E0372F
:1013CE00B1F4E889F9893497E88BF98BA889B98942
:1013DE0014960E948C0BEE83FF83AE81BF810E9418
:1013EE00260B1E2F086002600F7730E042C0E436F5
:1013FE0011F0E93611F4046002C0E53731F4E8EA81
:10140E00FCE0EE83FF8315E00CC0E83511F40860B4
:10141E0003C0E83709F0C1C0E2EBFCE0EE83FF83C6
:10142E0014E002FF1AC0E889F9893497E88BF98B2A
:10143E00A889B98914960E948C0BEA87FB87AB8525
:10144E00AA232AF40E94410BEA87FB874DE2403023
:10145E0011F01F5F01C00B7F0CC0E889F98934972A
:10146E00E88BF98BA889B98914960E948C0BEA87B0
:10147E00FB8700FD15C0151798F407FF08C002FF83
:10148E0004C00B7F242F115001C020E301C020E2C5
:10149E002A93AD85BE85EF85F88909955150EBCF1E
:1014AE00312F01FF1BC03030C1F003FF06C0EE81AB
:1014BE00FF812591EE83FF8305C0AE81BF812D9103
:1014CE00AE83BF832A93AD85BE85EF85F8890995D6
:1014DE00503009F051503150E6CF52C020E3EE812A
:1014EE00FF810E94900BE887F987EE81FF8132968B
:1014FE00EE83FF83E885F985AA85BB85AE17BF0706
:10150E0050F02F5FA885B985EA85FB85EA1BFB0B9A
:10151E00EA87FB87EFCF2A3328F003FF02C0295F4B
:10152E0001C0295D04FD1DC0213320F4A885B985B5
:10153E00119709F409C0531710F000FF01C01AC02B
:10154E0020E207FF0EC020E3006102FF0AC00B7FFE
:10155E004A93AD85BE85EF85F8890995503009F01F
:10156E0051502A93AD85BE85EF85F8890995503087
:10157E0009F051503150A885B985129708F0AECFB9
:10158E0000FF0BC0503049F05150E0E2EA93AD85B8
:10159E00BE85EF85F8890995F5CF10E0A0CEAC8514
:1015AE00BD850E948C0B0E94A00B64960895FF923D
:1015BE00F82E26970E949B0BDE011C960E943D0B77
:1015CE000E948C0B309719F4EFEFFFEF27C0DE016E
:1015DE0016960E943D0B8D01DE011C960E943D0B5E
:1015EE000E948C0BEE83FF83E0E0E887E987DE0143
:1015FE001A960E943D0B0E948C0BFA93EA931A9353
:10160E000A93EAE2F9E0FA93EA93DE011A965BDEB8
:10161E009F01AE81BF81E0E0EC93F9010E94A20B25
:10162E002A96FF900895BA93AA93A991B991EE279D
:10163E00FF276D91662311F03196FBCF0895BA9373
:10164E00AA93AA27BB27E991F9910590002011F0E2
:10165E001196FBCFFD010895109639F080EA9FE0B8
:10166E000197F1F7A8951197C9F708950024AF0DCA
:10167E00B01D0895F195E195F0400895EE230E2EDC
:10168E00FD0121F0EE0FFF1F0A94E1F70895EE0F12
:10169E00FF1FEE0FFF1FEE0FFF1FEE0FFF1F089530
:1016AE00F595E795F595E795F595E7950895FA9FE4
:1016BE00F02DEB9FF00DEA9FE02DF10D0895002423
:1016CE00112490E1AA0FBB1F001C111C0E1A1F0A39
:1016DE0018F40E0E1F1E01C0A1609A9599F7FD0118
:1016EE00D001089504D0EBDF0EF4C4DF0895E89422
:1016FE00F7FF02C0BFDF6894B7FF06C0A095B09594
:10170E00119600F8039400FA0895ED91FC9111974B
:10171E0008950590F491E02D08957A936A93FA93C3
:10172E00EA9308955A934A933A932A931A930A93F3
:10173E0008955D814C813B812A811981088108952C
:00000001FF
