:020000000C945E
:1000020034000C9400000C9400000C9400000C943A
:1000120000000C9400000C9400000C9400000C945E
:1000220000000C9400000C9400000C9400000C944E
:1000320000000C9400000C9400000C9400000C943E
:1000420000000C9400000C9400000C9400000C942E
:1000520000000C9400000C9400000C9400000C941E
:1000620000000C940000F894EE27EFBBF1E0F5BF1E
:10007200E5BF8DE0A2E0BB27ED938A95E9F780E02A
:1000820098E0A0E0B1E0ED930197E9F7E0E0EEBB84
:10009200EFEFEDBFE8E0EEBFC0E0D3E00C948A00E2
:1000A200AA935F98A8818BD05F9A90C0AA93289A4E
:1000B2005F98A88184D05F9A289888C0AA930E94EA
:1000C200FB00E885EE0FEE0FE95F3E2FEF81EE0FAA
:1000D200EE0FE95F2E2FEE81EE0FEE0FE95F5E2F3E
:1000E2005F98ACE26CD0289A00E010E00030E0E4C7
:1000F2001E0748F4A32F63D0A22F61D0A52F5FD093
:100102000F5F1F4FF3CF28985F9A0E940201299632
:1001120008955F9A299AEFE2E4B9E2E0E5B9579AC5
:10012200E0E5ECBDE0E0EDBD2998AAE0B0E00E9478
:10013200F100299AAAE0B0E00E94F1005F98A9E2DA
:100142003ED05F9A5F98A1E13AD05F9AA6E3A8DF1A
:10015200A8ECACDFAAE3A4DFA6E6A8DF28985F98A4
:10016200ACE22DD05F9A289A5F9833244424E0E0D1
:10017200F0E43E164F0658F4A4E021D0A4E01FD0CC
:10018200A4E01DD0E1E0F0E03E0E4F1EF0CF289833
:100192005F9A85E38A95F1F7E4E0EA93EA93A4E0B3
:1001A20017D0E8E3EA93A8E313D0E0E0EA93A0E0F3
:1001B20085DFA8EEB3E00E94F100EECFFFCFAA9355
:1001C200E881EEBDEDB5E7FFFDCFEEB521960895CE
:1001D20075DFA8EEB3E00E94F100E8E3EA93089528
:1001E200109639F080EA9FE00197F1F7A8951197F0
:1001F200C9F708955A934A933A932A931A930A9302
:1002020008955D814C813B812A811981088108957D
:00000001FF
