:060000000C94340D0C9479
:1000060000000C9400000C9400000C9400000C946A
:1000160000000C9400000C9400000C9400000C945A
:1000260000000C9400000C9400000C9400000C944A
:1000360000000C9400000C9400000C943C0F0C94EF
:1000460000000C9400000C9400000C9400000C942A
:1000560000000C9400000C9400000C9400000C941A
:100066000000080000000000000000000000000082
:100076000000000000000000000000000000000377
:1000860000000000FE0D000000000000000000005F
:100096000000000000000000000000000500000F46
:1000A60000000000000F000000000000000000003B
:1000B6000000000000000000000A00000001100D12
:1000C600D0033801160D90037801160110000000C8
:1000D600000000000000080000380444084408FF3F
:1000E6003F840884080807000000000000000000A4
:1000F6000000000E000000003C00421042183C08C0
:100106000006800170000C00820742084008800744
:100116000B000080035C04220822086208A2081C67
:10012600050002E0050008000000000000020000D3
:100136000F000000000000000000000000000000AA
:1001460000000000000000000000050000F0070CA1
:10015600180220010000000000000000000000005E
:100166000000000000000006000000000100022060
:100176000C18F0070000000000000000000000005E
:10018600000000000800002200140008007F00089C
:100196000014002200000000000000000000000023
:1001A600000B000000008000800080008000F80F37
:1001B6008000800080008000000000000000030036
:1001C600000020001C0000000000000000000000ED
:1001D6000000000000000000000000060000800093
:1001E6008000800080008000000000000000000009
:1001F60000000000000000000600000000000C00E7
:1002060000000000000000000000000000000000E8
:100216000000000000070020001C0003C0003000A2
:100226000E000100000000000000000000000000B9
:100236000000090000F8030404020802080208028C
:10024600080404F803000000000000000000000895
:1002560000000000000008080808FE0F000800085B
:10026600000000000000000000000000090000047B
:100276000C020A020A020902098208440838080028
:10028600000000000000000000090000040402084D
:10029600020822082208220852048C0300000000EB
:1002A6000000000000000A0000800140012001104B
:1002B6000108010401FE0F0001000100000000001A
:1002C60000000009000000043E0822082208220857
:1002D6002208420482030000000000000000000023
:1002E600090000F0034804240822082208220842D4
:1002F6000480030000000000000000000008000069
:10030600020002080206820162001A0006000000CE
:10031600000000000000000000000900001803A40F
:10032600044208420842084208A4041803000000D8
:1003360000000000000000090000380044088208A0
:100346008208820882048402F8010000000000008E
:100356000000000004000000000000300C00000057
:100366000000000000000000000000000000000087
:100376000004000000000020301C00000000000007
:1003860000000000000000000000000000000A005D
:10039600000000C000C00020012001100210020869
:1003A60004080400000000000000000B000000002C
:1003B600200120012001200120012001200120012F
:1003C60020010000000000000A00000000080408E8
:1003D600041002100220012001C000C0000000002D
:1003E600000000000007000004000200820D420029
:1003F60022001C00000000000000000000000000B9
:1004060000000D0000E003180C0410C41122221293
:100416002412241224F42704041804E00300000A1A
:10042600000C800360011C01020102011C01600135
:100436008003000C0000000000000000090000FE20
:100446000F220822082208220822085C04800300E2
:100456000000000000000000000A0000F0010C0689
:100466000404020802080208020804040C0600003C
:100476000000000000000A0000FE0F020802080249
:10048600080208020804040C06F00100000000003F
:10049600000000080000FE0F220822082208220899
:1004A60022082208000000000000000000000000F2
:1004B600090000FE0F220022002200220022002254
:1004C600000200000000000000000000000B000019
:1004D600F0010C0604040208020802084208420859
:1004E6004408CC070000000000000A0000FE0F20B0
:1004F60000200020002000200020002000FE0F0029
:10050600000000000000000400000208FE0F0208C0
:1005160000000000000000000000000000000000D5
:10052600000000000600080008020802080204FE97
:1005360003000000000000000000000000000000B2
:1005460000090000FE0F80004000A0001001080214
:10055600040402080000000000000000000008007B
:1005660000FE0F0008000800080008000800080048
:1005760000000000000000000000000C0000FE0F5C
:1005860002000C003000C0000003C00030000C0068
:100596000200FE0F000000000A0000FE0F04000823
:1005A6000030004000800100020004FE0F00000041
:1005B60000000000000B0000F0010C060404020815
:1005C60002080208020804040C06F00100000000FC
:1005D6000000090000FE0F82008200820082008275
:1005E6000044003800000000000000000000000B7E
:1005F6000000F0010C060404020802080208023892
:1006060004240C26F0210000000000000A0000FE71
:100616000F8200820082008200440138020004003A
:100626000800000000000000000900001802240471
:1006360042084208420842088204040300000000FF
:10064600000000000000090200020002000200FE95
:100656000F0200020002000200000000000000007D
:100666000000000A0000FE0300040008000800085D
:10067600000800080004FE0300000000000000005F
:100686000A06003800C0000007000800080007C07E
:10069600003800060000000000000000000D000009
:1006A60006003800C003000C8003780006007800BE
:1006B6008003000CC0033800000009000002080C8B
:1006C600061001E000E00010010C06020800000020
:1006D60000000000000000090200040018002000CD
:1006E600C00F2000180004000200000000000000F7
:1006F60000000000090000020C020A0209C20822DA
:100706000812080A080608000000000000000000A1
:10071600000600000000FF3F01200120012000002C
:1007260000000000000000000000000000000701BB
:10073600000E003000C0000003001C002000000076
:10074600000000000000000000000005000001207D
:1007560001200120FF3F0000000000000000000013
:1007660000000000000000000B0000200010000840
:10077600000400020002000400080010002000002F
:1007860000000000000A00200020002000200020B9
:1007960000200020002000200020000000000000B3
:1007A600000005000000000000010002000000003B
:1007B600000000000000000000000000000000082B
:1007C60000000007A0089008900890089004E00F29
:1007D600000000000000000000000000080000FF0C
:1007E6000F20081008100810082004C0030000009D
:1007F600000000000000000000080000C003200404
:10080600100810081008100820040000000000005E
:10081600000000000000080000C0032004100810BB
:100826000810081004FF0F00000000000000000080
:10083600000000080000C003A0049008900890087B
:10084600A008C00400000000000000000000000036
:100856000600001000FE0F1100110011000000003C
:10086600000000000000000000000000000800007A
:10087600C01120321024102410243022F01F000052
:1008860000000000000000000000080000FF0F202C
:10089600001000100010001000E00F000000000023
:1008A60000000000000000020000F20F000000003F
:1008B6000000000000000000000000000000000032
:1008C6000000000004002010201020F23F0000006D
:1008D6000000000000000000000000000000000012
:1008E60000080000FF0F00018000400120021004F4
:1008F60000080000000000000000000000000200E8
:1009060000FF0F00000000000000000000000000D3
:1009160000000000000000000000000D00000000C4
:10092600F00F2000100010001000E00F2000100053
:1009360010001000E00F0000080000F00F2000106B
:1009460000100010001000E00F0000000000000082
:100956000000000000090000C00320041008100871
:10096600100810082004C00300000000000000006A
:100976000000080000F83F100408040804080410EA
:1009860002E0010000000000000000000000000876
:100996000000E00110020804080408040802F83FF9
:1009A600000000000000000000000000060000F04B
:1009B6000F200010001000100000000000000000D2
:1009C600000000000000000000070000600490081E
:1009D6009008100910092006000000000000000021
:1009E6000000000000000600001000FC07100810C0
:1009F60008100800000000000000000000000000D1
:100A0600000000080000F0070008000800080008C1
:100A16000004F00F000000000000000000000000CD
:100A26000800003000C001000600080006C00130C2
:100A3600000000000000000000000000000C0000A4
:100A46003000C003000C0003C0003000C0000003EB
:100A5600000CC00330000000000008000010082051
:100A6600044002800140022004100800000000003B
:100A7600000000000000000800003000C021002235
:100A8600001A0006C001300000000000000000004F
:100A960000000000080000100C100A100990085011
:100AA60008300810080000000000000000000000E8
:100AB600000800008000800040013E3E0220022027
:100AC60002200000000000000000000000000400FA
:100AD6000000000000FF3F000000000000000000D2
:100AE60000000000000000000000000900000000F7
:100AF6000220022002203E3E4001800080000000CD
:100B060000000000000000000B00008001400020F3
:100B1600002000400080000001000180006000000D
:100B2600000000000004FE0F02080208FE0F00008D
:100B360000000000000000000000000000000000AF
:100B460000000A0006C001B0008E00810081008E00
:100B560000B000C00100060000000000000000090F
:100B66000000FF07110411041104110411042102ED
:100B7600C00100000000000000000000090000FFA6
:100B860007110411041104110411042E02C00100FE
:100B9600000000000000000000090000FF0701003F
:100BA6000100010001000100010001000000000039
:100BB6000000000000000A001C0006C0053F0401FA
:100BC60004010401040104FF07001C0000000000EA
:100BD600000000080000FF071104110411041104AD
:100BE60011041104000000000000000000000000D5
:100BF6000E0000010401020601880050002000FFDB
:100C060007200050008800060101020104080000C8
:100C1600020201041104110411042902C601000094
:100C2600000000000000000000000A0000FF0700AE
:100C3600020001C0002000180004000200FF0700A7
:100C4600000000000000000A0000FF070003810109
:100C5600C2006200320019000C00FF07000000000D
:100C660000000000090000FF072000200058008651
:100C76000001010102010400000000000000000064
:100C8600000A000400040003FF0001000100010047
:100C960001000100FF0700000000000000000C003A
:100CA60000FF0701000600180060008001600018C0
:100CB6000006000100FF07000000000A0000FF0711
:100CC6001000100010001000100010001000FF07A8
:100CD60000000000000000000B0000F80006030200
:100CE60002010401040104010402020603F80000E3
:100CF60000000000000D0000FF07100010001000AB
:100D0600F800060302020104010403060603F800C4
:100D160000000900041C022201C1004100410041FB
:100D2600004100FF0700000000000000000000086E
:100D36000000800350044804480448044802F007B1
:100D4600000000000000000000000000080000F89D
:100D56000324041208110811082204C1030000002C
:100D6600000000000000000000080000F80748042A
:100D76004804480448044804B0030000000000008A
:100D8600000000000000070000F80708000800083F
:100D9600000800080000000000000000000000003D
:100DA60000000008001C0007F804080408040804F2
:100DB600F807001C00000000000000000000000012
:100DC600080000E00150024804480448045004604A
:100DD600020000000000000000000000000C0000FF
:100DE600080408021001A0004000F8074000A00017
:100DF60010010802080400000000070000100208A5
:100E060004480448044804B0030000000000000041
:100E160000000000000000080000F8070001800044
:100E2600400020001000F80700000000000000004D
:100E360000000000080000F80701018200420022BD
:100E4600001100F80700000000000000000000008C
:100E560000080000F80740004000A000100108024A
:100E66000804000000000000000000000000080068
:100E7600040004F8030800080008000800F807004A
:100E86000000000000000000000000090000F80754
:100E960010002000C000C00020001000F80700006D
:100EA6000000000000000000080000F807400040B5
:100EB60000400040004000F807000000000000006D
:100EC6000000000000090000E00110020804080408
:100ED600080408041002E001000000000000000001
:100EE6000000080000F807080008000800080008CD
:100EF60000F80700000000000000000000000008E5
:100F06000000F83F10040804080408041002E00179
:100F1600000000000000000000000000070000E0E4
:100F26000110020804080408041002000000000072
:100F3600000000000000000000070800080008008C
:100F4600F807080008000800000000000000000084
:100F56000000000000000800001800E00000330058
:100F66000C0003E000180000000000000000000074
:100F76000000000C0000E001100208040804080448
:100F8600FF3F0804080408041002E0010000000006
:100F9600080000080410022001C000200110020809
:100FA600040000000000000000000000000900002E
:100FB600F80700040004000400040004F807001CFD
:100FC600000000000000000000000800007800801B
:100FD600008000800080008000F80700000000000C
:100FE600000000000000000C0000F80700040004E8
:100FF60000040004F8070004000400040004F807D5
:10100600000000000D0000F80700040004000400C2
:1010160004F8070004000400040004F807001C009C
:101026000009080008000800F807400440044004CE
:1010360040048003000000000000000000000B00D8
:1010460000F80740044004400440044004800300C4
:10105600000000F807000000000000080000F80784
:1010660040044004400440044004800300000000A3
:1010760000000000000000000700001002480448BD
:101086000448045002E001000000000000000000D7
:1010960000000000000C0000F80740004000E001DE
:1010A600100208040804080408041002E001000005
:1010B60000000700003C0042004200420042003CA3
:1010C6000000000000000000000000000000000B0F
:1010D600000000002002200220022002FE0320025F
:1010E600200220022002000000000000070000008D
:1010F600008400C200A20092008C000000000000E4
:10110600000000000000000000070000000044008E
:101116009200920092006C000000000000000000A7
:1011260000000000000006000000000000000002B1
:1011360000010000000000000000000000000000A8
:101146000000000B000000000020FC1F0001000250
:10115600000200020001FC07000800000000000079
:101166000800003E007F007F00FF3F01000100FFF6
:101176003F00000000000000000000000003000027
:101186000000C00000000000000000000000000099
:101196000000000000000000000007000000000042
:1011A60000002000200020001800000000000000C1
:1011B600000000000000000700000000840084001A
:1011C600FE0080008000000000000000000000001B
:1011D600000000000700007C00820082008200827E
:1011E600007C00000000000000000000000000007D
:1011F6000008000010042002400190042002400173
:1012060080000000000000000000000000000E004A
:101216000004000400FE00000C0003C000200018BB
:1012260002060380024002E00F00020E00000400E6
:101236000400FE00000C0003C00020001800460851
:10124600200C200A2009C0080E00004400920092DB
:101256000092006C0C0003C00020021803860240B6
:1012660002E00F000208000070048802880188006E
:1012760088008800F8070000000000000000000059
:1012860000000A0006C001B0008E00810081008EB9
:1012960000B000C0010006000000000000000009C8
:1012A6000000FF07110411041104110411042102A6
:1012B600C00100000000000000000000090000FF5F
:1012C60007110411041104110411042E02C00100B7
:1012D600000000000000000000090000FF070100F8
:1012E60001000100010001000100010000000000F2
:1012F6000000000000000A001C0006C0053F0401B3
:1013060004010401040104FF07001C0000000000A2
:10131600000000080000FF07110411041104110465
:10132600110411040000000000000000000000008D
:101336000E0000010401020601880050002000FF93
:101346000720005000880006010102010408000081
:10135600020201041104110411042902C60100004D
:10136600000000000000000000000A0000FF070067
:10137600020001C0002000180004000200FF070060
:10138600000000000000000A0000FF0700038101C2
:10139600C2006200320019000C00FF0700000000C6
:1013A60000000000090000FF07200020005800860A
:1013B600000101010201040000000000000000001D
:1013C600000A000400040003FF0001000100010000
:1013D60001000100FF0700000000000000000C00F3
:1013E60000FF070100060018006000800160001879
:1013F6000006000100FF07000000000A0000FF07CA
:101406001000100010001000100010001000FF0760
:1014160000000000000000000B0000F800060302B8
:1014260002010401040104010402020603F800009B
:1014360000000000000A0000FF0701000100010093
:101446000100010001000100FF070000000000008C
:101456000000090000FF0741004100410041004132
:101466000022001C00000000000000000000000A2E
:101476000000F8000603020201040104010401044D
:10148600020206030000000000000000090100013E
:101496000001000100FF070100010001000100003A
:1014A60000000000000000000009000003040C0416
:1014B6003004C003C00030000C0003000000000030
:1014C6000000000000000C000070008C0104010206
:1014D600020202FF070202020204018C01700000F0
:1014E6000000000900000104060388007000700077
:1014F6008800060301040000000000000000000050
:101506000A0000FF070004000400040004000400B1
:1015160004FF07001C00000000000000000A000095
:101526001F002000400040004000400040004000F6
:10153600FF0700000000000000000C0000FF07008D
:1015460004000400040004FF070004000400040073
:1015560004FF07000000000D0000FF070004000460
:1015660000040004FF070004000400040004FF0751
:10157600001C00000B010001000100FF0710041011
:10158600041004100410042002C001000000000032
:10159600000D0000FF0710041004100410041004CE
:1015A60010042002C00100000000FF07000009002F
:1015B60000FF07100410041004100410042002C0D9
:1015C60001000000000000000000000A0000020206
:1015D6000104110411041104110412021603F80087
:1015E60000000000000000000D0000FF07100010C2
:1015F600001000F8000603020201040104030606B7
:1016060003F80000000900041C022201C100410089
:10161600410041004100FF070000000000000000FB
:1016260000000800008003500448044804480448A9
:1016360002F00700000000000000000000000008A3
:101646000000F80324041208110811082204C1033B
:10165600000000000000000000000000080000F884
:101666000748044804480448044804B0030000003E
:10167600000000000000000000070000F807080056
:101686000800080008000800000000000000000034
:1016960000000000000008001C0007F80408040809
:1016A600040804F807001C00000000000000000009
:1016B600000000080000E001500248044804480405
:1016C600500460020000000000000000000000005E
:1016D6000C0000080408021001A0004000F80740B2
:1016E60000A0001001080208040000000007000026
:1016F60010020804480448044804B003000000002F
:1017060000000000000000000000080000F80700CC
:10171600018000400020001000F8070000000000D3
:1017260000000000000000080000F8070101820028
:10173600420022001100F80700000000000000002F
:1017460000000000080000F80740004000A000105C
:10175600010802080400000000000000000000006C
:10176600000800040004F803080008000800080048
:10177600F80700000000000000000000000009005B
:1017860000F80710002000C000C00020001000F87C
:101796000700000000000000000000080000F80735
:1017A60040004000400040004000F80700000000F4
:1017B6000000000000000000090000E0011002081F
:1017C600040804080408041002E0010000000000F8
:1017D6000000000000080000F807080008000800E4
:1017E60008000800F80700000000000000000000E4
:1017F6000000080000F83F1004080408040804105C
:1018060002E00100000000000000000000000007E8
:101816000000E00110020804080408041002000099
:10182600000000000000000000000000070800089B
:10183600000800F807080008000800000000000083
:101846000000000000000000000800001800E00092
:101856000033000C0003E000180000000000000048
:101866000000000000000C0000E00110020804085F
:10187600040804FF3F0804080408041002E00100FD
:10188600000000080000080410022001C00020012A
:101896001002080400000000000000000000000024
:1018A600090000F80700040004000400040004F81E
:1018B60007001C00000000000000000000080000F7
:1018C600780080008000800080008000F80700001B
:1018D600000000000000000000000C0000F80700F7
:1018E60004000400040004F80700040004000400D7
:1018F60004F807000000000D0000F80700040004CB
:1019060000040004F8070004000400040004F807BB
:10191600001C000009080008000800F80740044001
:1019260004400440048003000000000000000000A2
:10193600000B0000F8074004400440044004400443
:10194600800300000000F807000000000000080007
:1019560000F80740044004400440044004800300AB
:101966000000000000000000000000070000100258
:101976004804480448045002E0010000000000004A
:1019860000000000000000000C0000F807400040C6
:1019960000E001100208040804080408041002E02C
:1019A6000100000000080000700488028801880019
:1019B60088008800F8070000000000000000000012
:1019C60000001027E80364000A000100001000016F
:1019D60010000100FF00FF0000000000D3F1F22E0E
:1019E60000F0CD203D20362C353000D4E0EAF22E32
:1019F60000F0CD203D20362C34320074B03D333813
:101A06002E30B0D10074B03D33382E34B0D100CF73
:101A1600F0EEF8EBEE00343520ECE8ED00CEF1F216
:101A2600E0EBEEF1FC00313520ECE8ED00CFF0EE16
:101A3600E3F0E5F1F120203735252500CFEEE3EE82
:101A4600E4E020F5EEF0EEF8E0FF00C2E0EBFEF297
:101A5600FB20E220E6EEEFE5000008000300DA19BD
:101A66000000F894EE27EFBBF1E0F5BFE5BF8DE08F
:101A7600A2E0BB27ED938A95E9F780E098E0A0E025
:101A8600B1E0ED930197E9F7E0E6FAE185919591EA
:101A9600009761F0A591B59105901590BF01F001F1
:101AA60005900D920197E1F7FB01F0CFE0E0EEBB68
:101AB600EFEFEDBFE8E0EEBFC0E0D3E00C94490FD6
:101AC600AA935F98A8810E9432105F9A2196089582
:101AD600AA93289A5F98A8810E9432105F9A289844
:101AE60021960895AA93EA81F0E00E94C012DF01D0
:101AF600E981F0E00E94C712EA0FFB1F3E2E4F2E2F
:101B0600E981F0E0EF71F070EE0F0E94BE12DF0186
:101B1600E881F0E0EA0FFB1F5E2E6F2E23960895F4
:101B2600AA93EA81F0E00E94C012DF01E981F0E0A9
:101B36000E94C712EA0FFB1F7E2E8F2EE981F0E06E
:101B4600EF71F070EE0F0E94BE12DF01E881F0E047
:101B5600EA0FFB1F9E2EAF2E23960895AA93ABE2A3
:101B66000E94630DA0E00E946B0DA9810E946B0D7F
:101B7600A0E00E946B0DA8810E946B0D229608952D
:101B8600AA93AAE20E94630DA0E00E946B0DA981B0
:101B96000E946B0DA0E00E946B0DA8810E946B0D48
:101BA60022960895AA930E94DF12EE81EE0FEE0FA1
:101BB600EE0FAE2FED81E695E695E695EA0F3E2F00
:101BC600ED81EF71E295E07FEE0FAC81EA0F2E2FEB
:101BD6005F98ACE20E943210289A00E010E00030D4
:101BE600E0E41E0710F00C94010EA32F0E943210A1
:101BF600A22F0E9432100F5F1F4FF1CF28985F9AD5
:101C06000E94E61227960895AA930E94DF12EF819A
:101C1600AEE0EA020A92E885EA02F001E35FAE2F3F
:101C26000E94C30DE0E0EA93AFE70E94B10DEE819A
:101C3600EE0FEE0FEE0FAE2FED81E695E695E695EB
:101C4600EA0F3E2FED81EF71E295E07FEE0FAC815A
:101C5600EA0F2E2F5F98ACE20E943210289A00E01D
:101C660010E00030E7E01E0710F00C94430EA32F9F
:101C76000E943210A22F0E9432100F5F1F4FF1CF29
:101C860028985F9AEE81EA93EE81EA93AE810E94EC
:101C9600930D0E94E612289608952998A1E0B0E0D7
:101CA6000E94A312299AA1E0B0E00E94A3125F98B5
:101CB600A9E20E9432105F9AA1E10E94630DA6E399
:101CC6000E94630DA8EE0E946B0DAAE30E94630DAD
:101CD600A5E60E946B0DE1E0EA93EA93A1E00E947B
:101CE600D50D0895BA93AA930E94DD12E985AEE058
:101CF600EA020A92EA85EA02F001E35FAE2F0E9449
:101D0600C30DE885EE0FEE0FEE0FEA93AFE70E94E4
:101D1600B10D5F98ACE20E943210289A30E0E88557
:101D2600F0E0A0E2B0E00E94D612EA1BFB0BA32F64
:101D3600B0E0AE17BF0714F00C941E0FAE81BF8142
:101D4600EE27A30FBE1FEC91E03011F00C94AC0E01
:101D560072C0AE81BF81EE27A30FBE1FEC91E05289
:101D66002E2F10E0ADE12A9FF001E859FF4FE491D4
:101D76001E1710F00C941C0F2A9FF001E859FF4F14
:101D8600BF01A2E01A9FF0013196E60FF71F5491AA
:101D960000E0083010F00C94EC0EE02FA1E0B0E06B
:101DA6000E94B512A52FB0E0EA23FB23309711F469
:101DB6000C94E40EA32D0E943210A52D0E94321021
:101DC60006C0A72D0E943210A92D0E9432100F5F67
:101DD600E0CFADE12A9FF001E859FF4FBF01A2E035
:101DE6001A9FF0013296E60FF71F549100E0063075
:101DF60010F00C941A0FE02FA1E0B0E00E94B5128B
:101E0600A52FB0E0EA23FB23309711F40C94120FB0
:101E1600A32D0E943210A52D0E94321006C0A72DB8
:101E26000E943210A92D0E9432100F5FE0CF1F5F73
:101E360099CF3F5F74CF28985F9A0E94E4122A9642
:101E46000895BA93AA93E0E0F3E0FA93EA93EA815D
:101E5600FB81FA93EA9380E00E9447122496EB8175
:101E6600EA93EB81EA93A0E0B3E00E94750E249614
:101E76000895EA93FA93EFB7EA93E1E0F0E0BE0E35
:101E8600CF1EE991EFBFF991E9911895EFE2E4B918
:101E9600E2E0E5B9579AE8E5ECBDE1E0EDBDE2E048
:101EA600E5BDE1E0E0936E000E94500EE1E0EA93AA
:101EB600EA93A1E00E94D50DE4E1EA93E9E1EA9311
:101EC600A3E00E94750DE5E0EA93E3E0EA93A1E062
:101ED6000E94930DE0E0EA93E1E0EA93EA93A2E040
:101EE6000E94070EE0E0EA93EA93A2EEB9E10E94AF
:101EF600240FE0E0EA93E6E0EA93A7EEB9E10E9458
:101F0600240FE1E0EA93EA93E5E0EA93A1E00E9478
:101F1600070EE1E0EA93E0E0EA93A1EFB9E10E945F
:101F2600240FE1E0EA93E6E0EA93A7EFB9E10E9425
:101F3600240FE2E0EA93E1E0EA93EA93A2E00E944A
:101F4600070EE2E0EA93E0E0EA93A2EEB9E10E942E
:101F5600240FE2E0EA93E6E0EA93A1E0BAE10E9408
:101F6600240FE3E0EA93E1E0EA93E5E0EA93A1E0F7
:101F76000E94070EE3E0EA93E0E0EA93A1EFB9E1FD
:101F86000E94240FE3E0EA93E6E0EA93ABE0BAE1CD
:101F96000E94240FE4E0EA93E1E0EA93EA93A2E0E8
:101FA6000E94070EE4E0EA93E0E0EA93A5E1BAE1D5
:101FB6000E94240FE4E0EA93E9E0EA93ACE1BAE197
:101FC6000E94240FE5E0EA93E1E0EA93E5E0EA9374
:101FD600A1E00E94070EE5E0EA93E0E0EA93A3E2BF
:101FE600BAE10E94240FE5E0EA93E9E0EA93ACE265
:101FF600BAE10E94240FE6E0EA93E1E0EA93EA936D
:10200600A2E00E94070EE6E0EA93E0E0EA93A3E38B
:10201600BAE10E94240FE7E0EA93E1E0EA93E5E003
:10202600EA93A1E00E94070EE7E0EA93E0E0EA9374
:10203600A2E4BAE10E94240FE8E0EA93E1E0EA9321
:10204600EA93A2E00E94070EE8E0EA93E0E0EA9352
:10205600A1E5BAE10E94240F7894FFCFFFCFAA939F
:10206600E881EEBDEDB5E7FD01C0FCCFEEB52196EA
:102076000895BA93AA931A930A93AA81BB811296DA
:102086000E94CE12309711F40C947B10AA81BB816A
:1020960014960E94CE128F01309711F00C945410B2
:1020A6000EC00230E0E01E0710F40C946D10F8012B
:1020B60031978F01AA81BB811496ED93FC93AA8177
:1020C600BB811296ED91FD913196FE93EE93319779
:1020D600AC81A083AA81BB810E94CE12FF2312F499
:1020E6000C947A10ED91FD913196FE93EE9306C015
:1020F600AA81BB81EFEFFFEFED93FC931981088175
:1021060025960895BA93AA9326970E94DD1210E0A9
:10211600AC85BD85E0E0F0E0ED93FC93EA89FB89B0
:102126003196EA8BFB8B3197E4912E2FE03011F438
:102136000C943F12E12FE03011F00C94AF102532D1
:1021460011F00C94A81011E006C02A93AD85BE8547
:10215600EF85F88909958FC1E13011F00C94D510FF
:10216600253211F00C94BF102A93AD85BE85EF85FC
:10217600F889099510E07FC112E040E000E02D32B9
:1021860011F00C94C81001E076C12B3211F00C94BA
:10219600CE104BE270C1203211F00C94D41040E204
:1021A6006AC104C0E23011F00C94E21050E013E072
:1021B600203311F00C94E11000685DC104C0E330D7
:1021C60011F00C943E12203310F40C94EF102A33C5
:1021D60010F00C94EF1001C007C0AAE05A9F502DD2
:1021E600E22FE0535E0F47C1E22FE33611F00C9465
:1021F6000A11E889F9893497E88BF98BA481AA93A7
:10220600AD85BE85EF85F889099534C104C0E337ED
:1022160011F00C942111E889F9893497E88BF98B30
:10222600A889B98914960E94CE12EE83FF83AE81E7
:10223600BF810E948A121E2F17C004C0E03711F01A
:102246000C943C11E889F9893497E88BF98BA889B5
:10225600B98914960E94CE12EE83FF83AE81BF81A8
:102266000E9496121E2F086002600F7730E052C05F
:1022760004C0E43611F00C94411104C0E93611F0A3
:102286000C944711046004C0E53711F00C94521108
:10229600E8ECF9E1EE83FF8315E010C004C0E835F1
:1022A60011F00C945811086004C0E83711F00C9432
:1022B6003D12E2EDF9E1EE83FF8314E002FF1EC05A
:1022C600E889F9893497E88BF98BA889B989149636
:1022D6000E94CE12EA87FB87AB85AA2312F00C94E4
:1022E60079110E94B112EA87FB874DE2403011F462
:1022F6000C947F111F5F01C00B7F0CC0E889F98920
:102306003497E88BF98BA889B98914960E94CE1266
:10231600EA87FB8700FD17C0151710F00C94A6116D
:1023260007FF08C002FF04C00B7F242F115001C015
:1023360020E301C020E22A93AD85BE85EF85F889AA
:1023460009955150E9CF312F01FF1FC0303011F4EC
:102356000C94C71103FF06C0EE81FF812591EE8321
:10236600FF8305C0AE81BF812D91AE83BF832A93C3
:10237600AD85BE85EF85F8890995503011F40C942A
:10238600C51151503150E2CF66C020E3EE81FF8186
:102396000E94D212E887F987EE81FF813296EE839A
:1023A600FF83E885F985AA85BB85AE17BF0710F4BC
:1023B6000C94E7112F5FA885B985EA85FB85EA1B92
:1023C600FB0BEA87FB87EDCF2A3310F40C94F01150
:1023D60003FF02C0295F01C0295D04FF01C028C0B8
:1023E600213310F00C94FE11A885B985119711F4CC
:1023F6000C94FE1102C000610DC0531710F40C942A
:10240600071200FD01C001C01EC020E207FF10C078
:1024160020E3006102FF0CC00B7F4A93AD85BE85A9
:10242600EF85F8890995503011F40C941B12515020
:102436002A93AD85BE85EF85F8890995503011F44C
:102446000C94261251503150A885B985129710F474
:102456000C942E129ACF00FF0DC0503011F40C943C
:102466003D125150E0E2EA93AD85BE85EF85F889CD
:102476000995F3CF10E052CEAC85BD850E94CE12F1
:102486000E94E41264960895FF92F82E26970E9401
:10249600DF12DE011C960E94AD120E94CE1230970A
:1024A60011F00C945D12EFEFFFEF0E94E6122A96F0
:1024B600FF900895DE0116960E94AD128D01DE0191
:1024C6001C960E94AD120E94CE12EE83FF83E0E0BE
:1024D600E887E987DE011A960E94AD120E94CE12A5
:1024E600FA93EA931A930A93ECE3F0E1FA93EA93E8
:1024F600DE011A960E9485109F01AE81BF81E0E041
:10250600EC93F9010E94E6122A96FF900895BA9379
:10251600AA93A991B991EE27FF276D91662311F031
:102526003196FBCF0895BA93AA93AA27BB27E991C0
:10253600F9910590002011F01196FBCFFD01089549
:10254600109639F080EA9FE00197F1F7A895119768
:10255600C9F708950024AF0DB01D0895F195E195D2
:10256600F0400895EE230E2EFD0121F0EE0FFF1F21
:102576000A94E1F70895EE0FFF1FEE0FFF1FEE0F0F
:10258600FF1FEE0FFF1F0895F595E795F595E79563
:10259600F595E7950895ED91FC91119708950590AD
:1025A600F491E02D08951B2EBF2FF12D1A2EAE2F7C
:1025B600E12D08955A934A933A932A931A930A93CC
:1025C60008955D814C813B812A8119810881089596
:00000001FF
