:040000000C949F02BB
:100004000C9400000C9400000C9400000C9400006C
:100014000C9400000C9400000C9400000C9400005C
:100024000C9400000C9400000C9400000C9400004C
:100034000C9400000C9400000C9400000C9400003C
:100044000C9400000C9400000C9400000C9400002C
:100054000C9400000C9400000C9400000C9400001C
:100064000C940000000000000000005F0000000786
:10007400000700147F147F14242A7F2A12231308F4
:10008400646236495522500005030000001C2241D9
:10009400000041221C0014083E081408083E080809
:1000A40000503000000808080808006060000020C4
:1000B400100804023E5149453E00427F400042611F
:1000C4005149462141454B311814127F10274545AB
:1000D40045393C4A494930017109050336494949C2
:1000E40036064949291E00363600000056360000FF
:1000F4000814224100141414141400412214080298
:1001040001510906324979413E7E1111117E7F4920
:100114004949363E414141227F4141221C7F4949A0
:1001240049417F090909013E4149497A7F08080884
:100134007F00417F41002040413F017F081422415C
:100144007F404040407F020C027F7F0408107F3EC6
:100154004141413E7F090909063E4151215E7F0923
:10016400192946464949493101017F01013F40406F
:10017400403F1F2040201F3F4038403F6314081475
:100184006307087008076151494543007F414100F6
:1001940002040810200041417F00040201020440CF
:1001A40040404040000102040020545454787F48E9
:1001B4004444383844444420384444487F385454F0
:1001C4005418087E0901020C5252523E7F0804045E
:1001D4007800447D40002040443D007F10284400C6
:1001E40000417F40007C041804787C0804047838BB
:1001F400444444387C14141408081414187C7C08EF
:100204000404080854545420043F4440203C404013
:10021400207C1C2040201C3C4030403C44281028BA
:10022400440C5050503C4464544C44000836410043
:1002340000007F000000413608001008081008780C
:1002440046414678000000000000005F00000007FF
:10025400000700147F147F14242A7F2A1223130812
:10026400646236495522500005030000001C2241F7
:10027400000041221C0014083E081408083E080827
:1002840000503000000808080808006060000020E2
:1002940010080402000000000000005F00000007D6
:1002A400000700147F147F14242A7F2A12231308C2
:1002B400646236495522500005030000001C2241A7
:1002C400000041221C0014083E081408083E0808D7
:1002D4000050300000080808080800606000002092
:1002E40010080402000000000000005F0000000786
:1002F400000700147F147F14242A7F2A1223130872
:10030400646236495522500005030000001C224156
:10031400000041221C0014083E081408083E080886
:100324000050300000080808080800606000002041
:1003340010080402000609090600427F40004261D9
:100344005149462141454B311814127F1027454528
:1003540045393C4A4949300171090503364949493F
:1003640036064949291E003636000000563600007C
:100374000814224100141414141400412214080215
:10038400015109067E1111117E7F494949317F4986
:100394004949367F01010103603E21217F7F49499C
:1003A400494177087F087722414949367F1008047C
:1003B4007F7F1009047F7F08142241403E01017FA2
:1003C4007F020C027F7F0808087F3E4141413E7F47
:1003D4000101017F7F090909063E414141220101D2
:1003E4007F0101274848483F1E217F211E631408CE
:1003F40014633F20203F60070808087F7F407F4048
:100404007F3F203F207F017F4848307F4830007F76
:10041400007F484830224149493E7F083E413E46DC
:100424002919097F20545454783C4A4A4A307C5450
:100434005428007C04040404603824247C38545474
:1004440054186C107C106C00445454287C20100800
:100454007C7C2112097C7C10284400403804047CF4
:100464007C0810087C7C1010107C38444444387C90
:100474000404047C7C141414083844444400040424
:100484007C04040C5050503C08147C14084428107C
:1004940028443C20203C600C1010107C7C407C40A4
:1004A4007C3C203C207C047C5050207C5020007CF0
:1004B400007C50502028445454387C103844384828
:1004C4005434147C1027E80364000A00010000106F
:1004D400000110000100FF00FF0000000000050003
:1004E400D3F1F22E70483D202020202000D3F1F2D9
:1004F4002E74273D202020204300D2E5EA2E7048A8
:100504003D202020202000D2E5EA2E74273D202023
:100514002020D100C2F0E5ECFF3A2020202020204A
:1005240000CFF0EEE3F02E3A2020202025250025F0
:10053400690008000300DA040000F894EE27EFBB1A
:10054400F1E0F5BFE5BF8DE0A2E0BB27ED938A950E
:10055400E9F780E098E0A0E0B1E0ED930197E9F7D6
:10056400E6E3F5E085919591009761F0A591B59149
:1005740005901590BF01F00105900D920197E1F7E8
:10058400FB01F0CFE0E0EEBBEFEFEDBFE8E0EEBF44
:10059400C0E0D3E00C94DF03AA935F98A8818AD2C9
:1005A4005F9A8FC2AA93289A5F98A88183D25F9A90
:1005B400289887C2AA93EA81F0E00E948B07DF01A2
:1005C400E981F0E00E949207EA0FFB1F3E2E4F2EB6
:1005D400E981F0E0EF71F070EE0F0E948907DF010E
:1005E400E881F0E0EA0FFB1F5E2E6F2E1CC0AA9379
:1005F400EA81F0E00E948B07DF01E981F0E00E94CC
:100604009207EA0FFB1F7E2E8F2EE981F0E0EF7137
:10061400F070EE0F0E948907DF01E881F0E0EA0F35
:10062400FB1F9E2EAF2E23960895AA930E94CE07F9
:10063400EE81EE0FEE0FEE0FAE2FED81E695E6950F
:10064400E695EA0F3E2FED81EF71E295E07FEE0F24
:10065400AC81EA0F2E2F5F98ACE22CD2289A00E0EE
:1006640010E00030E0E41E0738F4A32F23D2A22FB9
:1006740021D20F5F1F4FF5CF28985F9A0E94D507AC
:1006840027960895AA93ABE202C0AA93AAE284DF54
:10069400A0E088DFA98186DFA0E084DFA88182DF73
:1006A40022960895BA93AA930E94CE07EF81A5E1FA
:1006B400EA020A92E885EA02F001EC5EAE2FE2DF7C
:1006C400EE81AAE0EA020A92EF81EA02F001AE2F7B
:1006D400DCDF1FE0AC81BD81EE27A10FBE1FEC91D2
:1006E400E03011F41150F6CF00E0E12FF0E0319644
:1006F400A02FB0E0AE17BF070CF059C05F98ACE272
:10070400D9D1289AAC81BD81EE27A00FBE1FEC91F0
:10071400E052BE2E20E02A3008F047C02898EE812F
:10072400AAE0EA02602D0A02F001E60FE20FEA9362
:10073400EF81EA02602D0A02F001E60FE20FAE2F0C
:10074400A4DF5F98ACE2B6D1289AA22FB0E0E2E031
:10075400F0E00E94AC07CE2E30E0353120F5EB2DD1
:10076400A5E0EA9FF001E859FF4FDF01EC2DF0E02E
:10077400EA0FFB1F1490E32FF0E0F595E795A1E055
:10078400B0E00E948007A12DB0E0EA23FB2330975C
:1007940021F0A32D8FD1A52D03C0A72D8BD1A92D79
:1007A40089D13F5FDACF2F5FB6CF0F5F9ECF2898F6
:1007B4005F9A0E94D507289608955F9A299AEFE2D6
:1007C400E4B9E2E0E5B9579AE8E5ECBDE1E0EDBD56
:1007D4002998AAE0B0E00E946E07299AAAE0B0E046
:1007E4000E946E075F98A9E265D15F9AA1E1D4DE09
:1007F400A6E3D2DEA8ECD6DEAAE3CEDEA5E6D2DE00
:1008040028985F98ACE256D15F9A289A5F98DD24C5
:10081400EE24E0E0F0E6DE16EF0658F4A4E04AD158
:10082400A4E148D1A4E446D1E1E0F0E0DE0EEF1EFD
:10083400F0CF28985F9AE1E0EA93EA93A1E0F5DE2D
:10084400EFE1EA93E7E3EA93A4E1B4DEE1E0EA93BB
:10085400EA93A1E0CCDEE0E0E0930103E0E0F3E022
:10086400FA93EA93E4EEF4E0FA93EA9380E00E94C8
:1008740019072496E0E0EA93EA93A0E0B3E012DFDC
:10088400E0E0F3E0FA93EA93E1EFF4E0FA93EA9319
:1008940080E00E9419072496E2E0EA93E0E0EA93FC
:1008A400A0E0B3E0FFDEE0E0F3E0FA93EA93EEEFDA
:1008B400F4E0FA93EA9380E00E9419072496E1E0B9
:1008C400EA93E0E0EA93A0E0B3E0ECDEE0E0F3E0FA
:1008D400FA93EA93EBE0F5E0FA93EA9380E00E945E
:1008E40019072496E3E0EA93E0E0EA93A0E0B3E09A
:1008F400D9DEE0E0F3E0FA93EA93E8E1F5E0FA9375
:10090400EA9380E00E9419072496E4E0EA93E0E089
:10091400EA93A0E0B3E0C6DEE0E0F3E0FA93EA9302
:10092400E5E2F5E0FA93EA9380E00E941907249641
:10093400E5E0EA93E0E0EA93A0E0B3E0B3DEE0E0D0
:10094400E0930103E0E0F3E0FA93EA93E3E3F5E0F4
:10095400FA93EA93E0911003F09111036627772745
:100964000E94C70784E00E9419072896E0E0EA93F2
:10097400E8E0EA93A0E0B3E095DEE0E0E093010371
:10098400E0E0F3E0FA93EA93E3E3F5E0FA93EA9321
:10099400E0911003F0911103662777270E94C7079F
:1009A40084E00E9419072896E1E0EA93E8E0EA93DC
:1009B400A0E0B3E077DEE0E0E0930103E0E0F3E001
:1009C400FA93EA93E3E3F5E0FA93EA93E0911003F0
:1009D400F0911103662777270E94C70784E00E94DD
:1009E40019072896E2E0EA93E8E0EA93A0E0B3E08E
:1009F40059DEE0E0E0930103E0E0F3E0FA93EA93E8
:100A0400E3E3F5E0FA93EA93E0911003F091110324
:100A1400662777270E94C70784E00E941907289653
:100A2400E3E0EA93E8E0EA93A0E0B3E03BDEE0E051
:100A3400E0930103E0E0F3E0FA93EA93E3E3F5E003
:100A4400FA93EA93E0911003F09111036627772754
:100A54000E94C70784E00E9419072896E4E0EA93FD
:100A6400E7E0EA93A0E0B3E01DDEE0E0E0930103F9
:100A7400E0E0F3E0FA93EA93E3E3F5E0FA93EA9330
:100A8400E7E1F0E060E070E00E94C70784E00E94C4
:100A940019072896E5E0EA93E8E0EA93A0E0B3E0DA
:100AA40001DEA0E1B3E0ED91FD913196FE93EE936A
:100AB40046CFFFCFAA93E881EEBDEDB5E7FFFDCFAA
:100AC400EEB521960895BA93AA931A930A93AA812C
:100AD400BB8112960E94BF07309759F1AA81BB814E
:100AE40014960E94BF078F01309761F00230E0E056
:100AF4001E0798F0F80131978F01AA81BB811496E3
:100B0400ED93FC93AA81BB811296ED91FD913196F0
:100B1400FE93EE933197AC81A083AA81BB810E949E
:100B2400BF07FF232AF0ED91FD913196FE93EE93DA
:100B340006C0AA81BB81EFEFFFEFED93FC9319810F
:100B4400088125960895BA93AA9326970E94CC0704
:100B540010E0AC85BD85E0E0F0E0ED93FC93EA891C
:100B6400FB893196EA8BFB8B3197E4912E2FE03091
:100B740009F455C1E12FE03059F4253211F411E0A4
:100B840006C02A93AD85BE85EF85F889099546C1CF
:100B9400E130C9F4253239F42A93AD85BE85EF8559
:100BA400F88909953AC112E040E000E02D3211F4D1
:100BB40001E034C12B3211F44BE230C1203211F484
:100BC40040E22CC102C0E23039F450E013E020339B
:100BD40011F4006823C103C0E33009F01FC12033BE
:100BE40010F02A3308F007C0AAE05A9F502DE22FD4
:100BF400E0535E0F13C1E22FE33669F4E889F98903
:100C04003497E88BF98BA481AA93AD85BE85EF85D3
:100C1400F889099502C1E33791F4E889F989349791
:100C2400E88BF98BA889B98914960E94BF07EE83D3
:100C3400FF83AE81BF810E9455071E2F14C0E03789
:100C4400B1F4E889F9893497E88BF98BA889B989D3
:100C540014960E94BF07EE83FF83AE81BF810E947A
:100C640061071E2F086002600F7730E042C0E4364F
:100C740011F0E93611F4046002C0E53731F4E8EC10
:100C8400F4E0EE83FF8315E00CC0E83511F408604E
:100C940003C0E83709F0C1C0E2EDF4E0EE83FF835E
:100CA40014E002FF1AC0E889F9893497E88BF98BBC
:100CB400A889B98914960E94BF07EA87FB87AB8588
:100CC400AA232AF40E947C07EA87FB874DE240307E
:100CD40011F01F5F01C00B7F0CC0E889F9893497BC
:100CE400E88BF98BA889B98914960E94BF07EA8713
:100CF400FB8700FD15C0151798F407FF08C002FF15
:100D040004C00B7F242F115001C020E301C020E256
:100D14002A93AD85BE85EF85F88909955150EBCFAF
:100D2400312F01FF1BC03030C1F003FF06C0EE813C
:100D3400FF812591EE83FF8305C0AE81BF812D9194
:100D4400AE83BF832A93AD85BE85EF85F889099567
:100D5400503009F051503150E6CF52C020E3EE81BB
:100D6400FF810E94C307E887F987EE81FF813296ED
:100D7400EE83FF83E885F985AA85BB85AE17BF0797
:100D840050F02F5FA885B985EA85FB85EA1BFB0B2C
:100D9400EA87FB87EFCF2A3328F003FF02C0295FDD
:100DA40001C0295D04FD1DC0213320F4A885B98547
:100DB400119709F409C0531710F000FF01C01AC0BD
:100DC40020E207FF0EC020E3006102FF0AC00B7F90
:100DD4004A93AD85BE85EF85F8890995503009F0B1
:100DE40051502A93AD85BE85EF85F8890995503019
:100DF40009F051503150A885B985129708F0AECF4B
:100E040000FF0BC0503049F05150E0E2EA93AD8549
:100E1400BE85EF85F8890995F5CF10E0A0CEAC85A5
:100E2400BD850E94BF070E94D30764960895FF9270
:100E3400F82E26970E94CE07DE011C960E947807A2
:100E44000E94BF07309719F4EFEFFFEF27C0DE01D0
:100E540016960E9478078D01DE011C960E94780781
:100E64000E94BF07EE83FF83E0E0E887E987DE01A5
:100E74001A960E9478070E94BF07FA93EA931A937E
:100E84000A93E5E6F5E0FA93EA93DE011A965BDE4F
:100E94009F01AE81BF81E0E0EC93F9010E94D50788
:100EA4002A96FF900895BA93AA93A991B991EE272F
:100EB400FF276D91662311F03196FBCF0895BA9305
:100EC400AA93AA27BB27E991F9910590002011F074
:100ED4001196FBCFFD010895109639F080EA9FE04A
:100EE4000197F1F7A8951197C9F708950024AF0D5C
:100EF400B01D0895F195E195F0400895EE230E2E6E
:100F0400FD0121F0EE0FFF1F0A94E1F70895EE0FA3
:100F1400FF1FEE0FFF1FEE0FFF1FEE0FFF1F0895C1
:100F2400F595E795F595E795F595E79508950024EA
:100F3400112490E1AA0FBB1F001C111C0E1A1F0ADA
:100F440018F40E0E1F1E01C0A1609A9599F7FD01B9
:100F5400D001089504D0EBDF0EF4CCDF0895E894BB
:100F6400F7FF02C0C7DF6894B7FF06C0A095B0952D
:100F7400119600F8039400FA0895ED91FC911197ED
:100F840008950590F491E02D08957A936A93FA9365
:100F9400EA9308955A934A933A932A931A930A9395
:100FA40008955D814C813B812A81198108810895CE
:00000001FF
